:020000040800F2
:10000000002000201D3D0008713C0008793C0008DC
:1000100000000000000000000000000000000000E0
:10002000000000000000000000000000813C00080B
:1000300000000000000000008B3C0008953C000818
:100040006D3D0008000000006D3D00086D3D00089A
:100050006D3D00086D3D00086D3D00086D3D0008D8
:10006000000000006D3D00086D3D00086D3D00087A
:100070006D3D00086D3D00086D3D0008000000006A
:100080006D3D00086D3D0008000000006D3D00085A
:100090006D3D00086D3D00086D3D00086D3D000898
:1000A0006D3D00086D3D00086D3D00086D3D000888
:1000B0006D3D00080000000000000000000000008E
:1000C00010B5064C2378002B07D1054B002B02D02E
:1000D000044800E000BF0123237010BD8000002011
:1000E00000000000606E0008044B10B5002B03D028
:1000F0000349044800E000BF10BDC04600000000F6
:1001000084000020606E000803B471464908400076
:100110004900095E49008E4403BC70470022430831
:100120008B4274D303098B425FD3030A8B4244D3BF
:10013000030B8B4228D3030C8B420DD3FF22090201
:1001400012BA030C8B4202D31212090265D0030BC0
:100150008B4219D300E0090AC30B8B4201D3CB03B6
:10016000C01A5241830B8B4201D38B03C01A5241F8
:10017000430B8B4201D34B03C01A5241030B8B42FA
:1001800001D30B03C01A5241C30A8B4201D3CB02E5
:10019000C01A5241830A8B4201D38B02C01A5241CA
:1001A000430A8B4201D34B02C01A5241030A8B42CD
:1001B00001D30B02C01A5241CDD2C3098B4201D3E5
:1001C000CB01C01A524183098B4201D38B01C01A63
:1001D000524143098B4201D34B01C01A52410309DA
:1001E0008B4201D30B01C01A5241C3088B4201D389
:1001F000CB00C01A524183088B4201D38B00C01A36
:10020000524143088B4201D34B00C01A5241411A5C
:1002100000D20146524110467047FFE701B5002069
:1002200000F006F802BDC0460029F7D076E7704717
:100230007047C046F0B546464F46D6464502C0B563
:10024000C30F470098460E1C6D0A3F0E5BD0FF2F70
:1002500021D08023ED00DB041D43002399469A46FC
:100260007F3F74027300640A1B0EF60F002B20D030
:10027000FF2B43D080220020E400D20414437F3BB4
:100280004246FF1A4B4672400F2B00D99DE0714940
:100290009B00CB589F46002D5AD108239946063B18
:1002A00074029A467300FF27640A1B0EF60F002B98
:1002B000DED1002C3BD1012342464946724019430E
:1002C0000E2918D86448890041588F465346022B9E
:1002D00000D1B8E0032B6ED042462C00012B40D158
:1002E00000200024C0052043D2071043E0BCBA46DA
:1002F000B146A846F0BDFF200024F3E7002C20D132
:100300000223FF3FD8E7002D05D104239946033B84
:1003100000279A46A5E7280000F03CFD7627431FFA
:100320009D4000237F4299469A463F1A99E7200054
:1003300000F030FD431F9C4076235B421B1A0020D7
:100340009EE703234A461A4391460320FC3397E76E
:100350000C239946093BFF279A4682E703282CD0B5
:10036000320038007F30002847DD630704D00F23B8
:100370002340042B00D00434230103D53800374B2D
:1003800080301C40FE28B6DCA401640AC0B2A9E794
:1003900080240022FF20E403A4E78023DB031D4226
:1003A00001D01C420BD08024E4032C43640242465B
:1003B000FF20640A96E746462C008023DB031C439B
:1003C00064023200FF20640A8CE76D0160018542FF
:1003D0002DD21B230024013F0126290064006D005B
:1003E000002901DB854201D32D1A3443013B002B48
:1003F000F3D16B1E9D412C43B3E701231B1A1B2B2A
:1004000000DD6DE721009E37D940BC400B00611E26
:100410008C412343590704D00F211940042900D0EF
:100420000433590113D49B0100205C0A5AE71A23B4
:1004300001242D1AD0E7981E434258414042320011
:100440000024C0B24EE74246FF2000244AE70120C4
:10045000002447E790710008D0710008FFFFFFF704
:1004600070B5002812D0C317C5185D40C40F28000E
:1004700000F090FC9E231B1A962B0FDC082838D026
:10048000083885406D026D0AD8B202E000240020D1
:100490000025C0052843E407204370BD992B14DCD8
:1004A000421F95402A001549114055071CD00F25C1
:1004B0002A40042A18D00431CA08490115D59F23BF
:1004C0005202181A550AC0B2E3E705222900121A8F
:1004D000D14002001B3295402A00551EAA410A4312
:1004E000064911405507E2D1CA085202550AD8B24E
:1004F000CFE76D026D0A8E30CBE7C046FFFFFFFBF2
:10050000F0B54F464646D646C0B582B00090019140
:100510000E034C00CD0F710A009E5F00760F0E4354
:10052000009900920193C900894619037B0D9846F2
:10053000019B490ADB0F9C46009B009A5B0F0B4313
:100540004146640DD200611A654500D1A6E000293C
:1005500072DD4746002F00D1DDE0CC4FBC4200D118
:100560009AE10127382917DC80273F043B431F29E4
:1005700000DDDDE12027781A1F008740BA4617000A
:10058000CF40844638005746074360468240CB4000
:10059000501E8241F61A17434B46DF1BB945804176
:1005A0004042361A330200D4FFE07602760A002E6B
:1005B00000D13CE1300000F0EDFB0300083B2021BE
:1005C0003800CA1AD0409E4002009F4032439C42ED
:1005D00000DDA6E1181B0130091A3E008F40C6401D
:1005E0007B1E9F4113008B4037431F43C2403B009B
:1005F00016000024134300D1DFE17B0700D132E372
:100600000F233A003B40042B04D03A1DBA42BF41AD
:100610007F42F619330200D423E39C4B01349C4201
:1006200000D1B4E09A4B64051E40640D7707D208F0
:1006300076021743360BACE0002900D17EE041463C
:10064000091B002C00D060E134004846044300D16F
:10065000C9E14C1E012900D12EE28C4DA94200D1E6
:1006600024E20127382C11DC21001F2900DD0BE2D8
:10067000202437004846641AA740C840074348462C
:10068000A040CE40441EA0419B1B0743D71BBA424B
:1006900092415242654644469E1A83E7002900DC97
:1006A0009CE04746002F67D11F00174300D1E4E0CC
:1006B000481E012900D19BE1744FB94200D1EBE003
:1006C00001270100382811DC1F2900DDC7E12027A0
:1006D000781A1F00844687401000C84007436046D0
:1006E0008240CB40501E8241F61817434F444F457D
:1006F000804140423618330257D5644B01349C4246
:1007000045D00121624B7A081E4039400A43F70761
:100710001743760871E71F00174300D1ADE04F1E65
:10072000BC46012900D182E1584FB94200D190E185
:1007300061460127382900DD2EE718E7554F611C77
:10074000394200D0D0E0310048461F000143174332
:10075000002C00D03DE1002900D1BCE1002F00D0E9
:10076000BFE14B460021D80877070743F00806038E
:100770004C05360B640D0CE0444FBC4200D18BE0BD
:1007800001273829B2DC80273F043B439CE7002641
:10079000002724053443ED072C433800210002B024
:1007A000E0BCBA46B146A846F0BD7B0704D00F2393
:1007B0003B40042B00D028E7F808344B7707074369
:1007C000F0089C4200D04AE23B00034359D0802607
:1007D0003603064336032D4C360BDAE7002961D089
:1007E0004146091B002C00D1B9E0284CA04500D19E
:1007F000A5E10127382913DC8024240426431F297E
:1008000000DDC8E1202437004846641AA740C840EC
:1008100007434846A040CE40441EA0419B190743D1
:10082000BF189742924152424446D61863E73800B7
:1008300000F0B0FA030018331F2B00DCBFE63A00CB
:10084000083882409C4200DD83E01B1B581C1F2897
:1008500000DCB4E117001F3BDF40202805D0402317
:100860001B1A9A40531E9A4117430024002F0AD0A6
:100870007B0700D0C4E626009EE74B460C00D80854
:100880009BE70027014C002683E7C046FF070000D6
:10089000FFFF7FFFFE0700004B467707D80807439E
:1008A000F00891E7CD4F611C39426BD131004846C9
:1008B0000143002C00D04BE11F001743002900D159
:1008C00081E1002F00D14CE74A444A458041F618A7
:1008D00040423618330200D5B0E117009146374345
:1008E00000D03EE7002654E74946891A8846C145AC
:1008F000BF41F11A7F42C91B0F0261D447460F4323
:1009000000D1BDE00E00474651E6B54CA04500D1F0
:1009100000E10127382900DDB8E6802424042643BD
:10092000A3E6B04EE41A16407B0700D03FE743E74A
:100930000F001800203FF8408446202903D04027AC
:10094000791A8B401A43531E9A41634617001F437E
:1009500022E6A448E11A10404707C00807E7340020
:100960004846044300D1FAE04C1E012900D1D7E0EB
:100970009B4FB94200D1E2E00127382C00DD4FE760
:1009800021003CE7964CA14200D1DDE04A444A45B3
:100990008041F31840421818C70752081743460809
:1009A000520705D00F220C003A40042A00D02CE652
:1009B0007607FF0837430009D9E600270026E8E656
:1009C0004946571ABA4292419E1B52426546B61A90
:1009D000EDE5002900D0C6E0002F67D18026002574
:1009E0007F4C3603D5E665460C001E00D008E4E6D1
:1009F0004A444A458041F318404218181100030246
:100A000000D496E0774B49081840C3070B434408CD
:100A1000490700D129E10F221A40042A00D1EAE057
:100A20001F1D9F42B641764236190224C4E649464C
:100A30008F1AB9458041F61A4042361A330206D45D
:100A40007307FF0801211F43F00890E66546012463
:100A5000ABE54B467707D8080743F008B4E60F002C
:100A60001800203FF8408446202903D04027791AF7
:100A70008B401A43531E9A41634617001F4335E6C5
:100A800000250024002684E60C003500203CE540CB
:100A9000202905D04024611A8E40494631438946B9
:100AA0004846411E884107002F43EFE5D2085F0703
:100AB00065461743D80887E6171ABA4292419E1B2B
:100AC0005242B61A3302C1D47307FF0865460121AA
:100AD0001F43F0084BE6002F7BD065461E00914671
:100AE0003FE6811A8846C145A441F11A6442091BB8
:100AF00080242404214277D0101A824292410700B8
:100B00009E1B5242B61A374300D0A0E0654600242F
:100B100000263EE65F07D20865461743D80853E62D
:100B2000811891429241F01852428018030200D578
:100B300068E74707C9080F43C008012117E6D20834
:100B40005F071743D8083FE60C000026002720E681
:100B5000002956D15F07D2081743D80834E60C00A5
:100B60001E00D00829E6C10870070143F008002FD5
:100B700062D080242403204207D0DE08264204D11C
:100B800065463000D1085B0719434F0FC900C908FB
:100B90007F070F4318E60C003000203CE0408446FD
:100BA000202905D04024611A8E40494631438946A8
:100BB0004846411E8841614607000F4330E6202128
:100BC0000027091A0EE51E00002F00D022E50024A0
:100BD00058E7002500240026DBE5C046FE0700009C
:100BE000FF070000FFFF7FFF47460F4300D147E7A5
:100BF0000E00C146B5E5DF0864070221274300095E
:100C0000B5E51900C008770707431143F00800292C
:100C100000D1D9E580210903084207D0DC080C4245
:100C200004D1D2085B071A43170020007B0FFF0096
:100C3000FF085B071F43C7E50F00C5E5124BD2084D
:100C400033405F075B02012417431E0BA1E52642D8
:100C500012D00D4B6546020001241E40E6E421003F
:100C600085E51700A8E53A00D4E4DB0864071C43D7
:100C70002700022100097AE5C00877070743654687
:100C80000021F00873E5C046FFFF7FFF0B00020064
:100C900070B5164D0C0382B04900002000920193FC
:100CA000240B490DDE0FA94204DD1148814203DD0A
:100CB000104BF01802B070BD8020400320430E4C52
:100CC000641A1F2C08DD0D4B5B1AD84003005842F4
:100CD000002EEFD11800EDE7094B009A9C46030067
:100CE00061448B40E2401343F1E7C046FE0300003D
:100CF0001D040000FFFFFF7F330400001304000009
:100D0000EDFBFFFF70B542024300C40FFE201B0E37
:100D1000591C550A08420CD0E02189008C466D0709
:100D2000120B63441B051343E407234328001900F7
:100D300070BD002B14D1002D1BD0280000F02AF824
:100D40000A281CDC0B232A001B1ADA400300153387
:100D50009D400E4B12031B1A5B05120B5B0DE1E766
:100D6000002D09D0130B802212031A436D07084B84
:100D7000D8E700230022D5E70022054BD2E7030085
:100D80002A000B3B9A400025E3E7C0468903000098
:100D9000FF0700001C2101231B04984201D3000C13
:100DA00010391B0A984201D3000A08391B099842DE
:100DB00001D30009043902A2105C40187047C046F4
:100DC0000403020201010101000000000000000014
:100DD000F0B585B000AF04000800BA6019000F2517
:100DE0007B19221C1A700E243B19021C1A700D2646
:100DF000BB190A1C1A7063467B607B191B789BB277
:100E000002339AB23B191B789BB21900100002F012
:100E10006FFBBB191B78012B06D12349BB6801224C
:100E2000180002F0FFFB3AE00D23FB181B78022BA1
:100E300006D11E49BB680122180002F0F3FB2EE028
:100E40000D23FB181B78032B06D11949BB6801221F
:100E5000180002F0E7FB22E00D23FB181B780A2B99
:100E600006D11149BB680022180002F0DBFB16E036
:100E70000D23FB181B78142B06D10C49BB680022EC
:100E8000180002F0CFFB0AE00D23FB181B781E2B85
:100E900005D10749BB680022180002F0C3FBC04619
:100EA000BD4605B0F0BDC04600000020080000208F
:100EB0001000002080B584B000AF1823FB187B60C1
:100EC00002F056FF02F014F802F0E8F802F076F8AB
:100ED00002F0B4F880235B00CB480122190003F034
:100EE00010FA02F075F9C94A3B1D9C460223002105
:100EF0002320FFF76DFFC64A3B1D9C4602231321AA
:100F00002320FFF765FFC34A3B1D9C460223262191
:100F10000920FFF75DFF02F01FFAFA235B001800BB
:100F200002F08AFF02F033FD02F07CFF0300FB6059
:100F300080235B01B44A1900100003F0C5F90300D7
:100F40001A000B203B18511E8A411A703B181B785F
:100F500001225340DBB2002B16D0AF4B1B7801228D
:100F60005340DBB2002B0FD0AC4B1B68FA68D31A8E
:100F7000322B09D9A84B01221A70A94B00221A70F2
:100F8000A64BFA681A6071E20B23FB181B7801224A
:100F90005340DBB2002B00D1DEE1A14B1B780122D4
:100FA0005340DBB2002B00D1D6E19C4B1B68FA68A2
:100FB000D21AFA235B009A4200D8CDE1984B012265
:100FC0001A70984B1B78002B06D1974B1B78072B78
:100FD00002D1964B06221A70924B1B78002B08D137
:100FE000904B01221A70904B01221A7002F0CFFC34
:100FF0003BE28C4B1B78012B0CD18B4B1B78002BCD
:1010000008D1884B00221A70874B00221A7002F018
:10101000BEFCA0E1834B1B78012B0CD1824B1B78CB
:10102000012B08D17F4B02221A707F4B02221A70CB
:1010300002F0ADFC8FE17B4B1B78012B0CD17A4B7E
:101040001B78022B08D1774B03221A70764B0122B2
:101050001A7002F09CFC7EE1724B1B78012B0CD1C4
:10106000714B1B78032B08D16E4B04221A706E4B08
:1010700000221A7002F08BFC6DE16A4B1B78022B88
:101080000FD1694B1B78002B0BD1664B01221A70D4
:10109000654B01221A70654B03221A7002F077FC2F
:1010A00059E1604B1B78022B04D15F4B1B78012B5D
:1010B00000D150E15B4B1B78022B10D15A4B1B78AF
:1010C000022B0CD15A4A3B1D9C46012300210020D3
:1010D00000F088FA3B1D9C4600F060FF3BE1514B5D
:1010E0001B78022B0CD1504B1B78032B08D14D4B96
:1010F00014221A704C4B01221A7002F048FC2AE1AB
:10110000484B1B78022B10D1474B1B78042B0CD17A
:10111000474A3B1D9C4601231621002000F062FA3D
:101120003B1D9C4600F0A8FF15E13E4B1B78022BAF
:1011300010D13D4B1B78052B0CD13D4A3B1D9C46E5
:1011400001232021002000F04DFA3B1D9C4601F0B8
:1011500003F800E1334B1B78022B10D1324B1B7884
:10116000062B0CD1324A3B1D9C4601232A2100202C
:1011700000F038FA3B1D9C4601F05CF8EBE0294B8F
:101180001B78142B08D1284B1B78052B04D13B1D51
:101190009C4601F0C9F9DEE0224B1B78142B0CD1E0
:1011A000214B1B78002B08D11E4B02221A701E4BBC
:1011B00003221A7002F0EBFBCDE01A4B1B78142BC4
:1011C00010D1194B1B78042B0CD8164B15221A7012
:1011D000154B1B78013B174AD35C303BDAB2164BF8
:1011E0001A70B8E00F4B1B78152B27D10D4B14222A
:1011F0001A70114B1A780C4B1B78013B3032D1B26C
:101200000C4AD15431E1C04600040048786E000811
:10121000806E0008886E0008780100207C010020A4
:1012200079010020800100208101002018000020A9
:10123000946E00081C00002082010020A84B1B783F
:10124000032B0CD1A74B1B78002B08D1A44B0122F8
:101250001A70A44B02221A7002F099FB7BE0A04B9B
:101260001B78032B10D19F4B1B78012B0CD19E4A6E
:101270003B1D9C4601230021002000F0B3F93B1DDB
:101280009C4601F073FA66E0954B1B78032B10D156
:10129000944B1B78022B0CD1934A3B1D9C46012397
:1012A0000A21002000F09EF93B1D9C4601F0E2FA65
:1012B00051E08B4B1B78032B10D18A4B1B78032BEF
:1012C0000CD1894A3B1D9C4601231421002000F0CB
:1012D00089F93B1D9C4601F041FB3CE0804B1B78AB
:1012E000032B10D17F4B1B78042B0CD17E4A3B1D66
:1012F0009C4601231E21002000F074F93B1D9C46F2
:1013000001F0A0FB27E0764B1B78032B10D1754B27
:101310001B78052B0CD1744A3B1D9C4601232821C8
:10132000002000F05FF93B1D9C4601F0FDFB12E040
:101330006B4B1B78042B00D097E06A4B1B78002B7B
:1013400000D092E0664B01221A70664B03221A709D
:1013500002F01DFB89E088E00B23FB181B78002BB3
:1013600000D183E0614B1B78002B00D17EE0604B05
:101370001B68FA68D31A322B00D877E05B4B002247
:101380001A705B4BFA681A605A4B1B780122534063
:10139000DBB2002B00D169E0514B1B78002B0CD144
:1013A000504B1B780133DAB24E4B1A704D4B1B7801
:1013B000072B02D94B4B00221A70494B1B78012B8B
:1013C0000CD1484B1B780133DAB2464B1A70454BAF
:1013D0001B78032B02D9434B00221A70404B1B7819
:1013E000022B0ED13F4B1B780133DAB23D4B1A7002
:1013F0003C4B1A78404B1B789A4202D9394B002259
:101400001A70374B1B78032B0CD1364B1B780133EA
:10141000DAB2344B1A70334B1B78052B02D9314B9F
:1014200000221A702E4B1B78142B0CD12D4B1B78DD
:101430000133DAB22B4B1A702A4B1B78052B02D9D9
:10144000284B00221A70264B1B78152B0ED12B4BE4
:101450001B780133DAB2294B1A70284B1B78092B01
:1014600004D9264B00221A7000E0C0461C4B1B78A2
:10147000002B03D13B1D9C4600F0DEF8184B1B7877
:10148000012B03D13B1D9C4600F04EFB144B1B78F7
:10149000022B03D13B1D9C4600F0B6FB104B1B7882
:1014A000142B03D13B1D9C4600F034FF0C4B1B78E2
:1014B000152B03D13B1D9C4600F0E0FF084B1B7829
:1014C000032B03D13B1D9C4601F0C8F8044B1B784D
:1014D000042B00D028E53B1D9C4601F097FB23E53B
:1014E0008001002081010020946E00087801002016
:1014F0007C010020790100201800002082010020DA
:10150000B0B582B000AF05000C0010001900FB1D43
:101510002A1C1A70BB1D221C1A707B1D021C1A701B
:101520003B1D0A1C1A7063463B60FB1D1B789BB277
:1015300002339AB2BB1D1B789BB21900100001F058
:10154000D7FF3B1D1B78012B07D123497B1D1B783F
:101550000122180001F0E4FF3AE03B1D1B78022B4A
:1015600007D11E497B1D1B780122180001F0D8FF0E
:101570002EE03B1D1B78032B07D119497B1D1B78DF
:101580000122180001F0CCFF22E03B1D1B780A2B42
:1015900007D111497B1D1B780022180001F0C0FF04
:1015A00016E03B1D1B78142B07D10C497B1D1B78C3
:1015B0000022180001F0B4FF0AE03B1D1B781E2B2F
:1015C00006D107497B1D1B780022180001F0A8FFF7
:1015D000C046BD4602B0B0BD00000020080000209B
:1015E00010000020F0B585B000AF04000800BA601C
:1015F00019000F26BB19221C1A700E23FB18021C9F
:101600001A700D203B180A1C1A70634661467960F7
:101610003A181578BC680E22BA181178BA191078E1
:101620009C462B002200FFF7D3FB01F095FEC0463D
:10163000BD4605B0F0BD0000F0B5ADB000AF6446EA
:1016400063467B6002F0EEFB0200D34B1B68D31AAB
:10165000D24A934200D857E280239B01D04800220F
:10166000190002F04EFEAC26BB19CE4A1A8008259E
:101670007B19180049231A00002104F01BFF01F018
:10168000DDFCB919C8483223022204F071F9791936
:10169000C5486423492204F00BFA7B1948229B5C5D
:1016A0000D2B05D07B1949222021180004F002FFE0
:1016B00002F0B8FB0200B84B1A60A426BB19180050
:1016C00006231A00002104F0F5FE9C23FB181800E5
:1016D00006231A00002104F0EDFE08257B191900ED
:1016E0002B31BB190522180004F0ECFE7B19190000
:1016F00031319C23FB180522180004F0E3FEAB4AAD
:10170000A446012300210020FFF762FBBA19A4467A
:10171000012300211520FFF75BFB9C23FA18A44648
:10172000012300215B20FFF753FB9426BB1918000F
:1017300005231A00002104F0BDFE8C23FB181800BD
:1017400005231A00002104F0B5FE7B1919003D3174
:10175000BB190422180004F0B5FE7B1919004131B1
:101760008C23FB180422180004F0ACFE904AA44617
:1017700002230D210020FFF72BFBBA19A4460223F8
:101780000D211C20FFF724FB8C23FA18A44602230A
:101790000D214E20FFF71CFB8426BB1918000623E1
:1017A0001A00002104F086FE7B193733190035003A
:1017B0007B190522180004F085FE7E4AA446012309
:1017C00021210020FFF704FB7A19A44601232121DF
:1017D0003120FFF7FDFA7026BB19180014231A00F8
:1017E000002104F067FEBB1914222021180004F028
:1017F00061FEBA19A44601232B210020FFF7E8FA65
:101800007B19DB78302B0AD17B191B79302B06D161
:10181000BB19694A1188198092789A70FAE084227B
:10182000BB18DB78312B0DD1BB181B79302B09D1BC
:101830007023FB18614A03CA03C311881980927888
:101840009A70E7E08422BB18DB78312B0DD1BB18EE
:101850001B79312B09D17023FB18594A23CA23C3A2
:101860001188198092789A70D4E08422BB18DB78B2
:10187000322B0FD1BB181B79312B0BD17023FB18E6
:10188000504A23CA23C311681960918899809279BC
:101890009A71BFE08422BB18DB78322B0DD1BB18C4
:1018A0001B79322B09D17023FB18474A23CA23C363
:1018B0001168196012791A71ACE08422BB18DB78C8
:1018C000322B0BD1BB181B79342B07D17023FB189B
:1018D0003E4A23CA23C312781A709BE08422BB18A5
:1018E000DB78332B0DD1BB181B79302B09D170233A
:1018F000FB18374A23CA23C31188198092789A703B
:1019000088E08422BB18DB78332B0BD1BB181B7902
:10191000312B07D17023FB182E4A03CA03C3127858
:101920001A7077E08422BB18DB78342B0DD1BB18FA
:101930001B79302B09D17023FB18274A23CA23C3F4
:101940001168196092889A8064E08422BB18DB7861
:10195000352B0DD1BB181B79302B09D17023FB1807
:101960001E4A23CA23C31168196092889A8051E0E5
:101970008422BB18DB78352B34D1BB181B79312B73
:1019800030D17023FB18164A23CA23C3118819804B
:1019900092789A703EE0C046840100201405000051
:1019A00000080048460D0000F0000020986E000876
:1019B000A86E0008AC6E0008B46E0008B86E00088F
:1019C000C46E0008D46E0008E86E0008FC6E0008C3
:1019D0000C6F00081C6F0008286F00083C6F00089F
:1019E000506F00088422BB18DB78392B0DD1BB184F
:1019F0001B79302B09D17023FB18454A23CA23C316
:101A00001188198092789A7004E07023FB18414A7B
:101A100003CA03C37023FA18A44601232B21002014
:101A2000FFF7D6F964257B1918000A231A00002154
:101A300004F040FD8423FB189B78312B08D17B19DF
:101A4000354A116819609188998092799A7113E0EA
:101A50008423FB189B78302B09D16423FB182F4A71
:101A6000116819609188998092799A7104E06423D1
:101A7000FB18284A03CA03C36423FA18A4460123A7
:101A800021215420FFF7A4F95C257B1918000623B7
:101A90001A00002104F00EFD5426BB19180006237D
:101AA0001A00002104F006FD0823FB181900133169
:101AB0007B190522180004F005FD0823FB180D33DF
:101AC0001900BB190522180004F0FCFC144AA446B6
:101AD000012335210020FFF77BF97A19A446012361
:101AE00035211520FFF774F9BA19A44601233521D1
:101AF0005B20FFF76DF980239B010A480122190042
:101B000002F0FFFB01F028FCC046BD462DB0F0BD41
:101B1000606F0008706F0008786F0008806F000821
:101B2000886F00080008004890B583B000AF644695
:101B300063467B6080239B012C480022190002F041
:101B4000E0FB2B4AA446012300210020FFF740F9C7
:101B5000284AA44601230A210020FFF739F9264A22
:101B6000A446012314210020FFF732F9234AA4469A
:101B7000012332210020FFF72BF9214B1B78012B89
:101B800006D1204AA446012300210020FFF720F9B6
:101B90001B4B1B78022B06D11A4AA44601230A21AB
:101BA0000020FFF715F9164B1B78032B06D1154AB9
:101BB000A446012314210020FFF70AF9104B1B78DB
:101BC000002B06D10F4AA446012332210020FFF743
:101BD000FFF801F0C1FB80239B010448012219009A
:101BE00002F08FFBC046BD4603B090BD0008004820
:101BF000986F0008A86F0008B46F0008C06F000855
:101C000081010020C86F0008F0B593B002AF6446B0
:101C100063467B60CB4AA446012300213920FFF7AD
:101C2000D7F8C94B1B78012B06D1C84AA44601231B
:101C300000213920FFF7CCF8C54AA4460123002132
:101C40000020FFF7C5F8C04B1B78022B06D1BF4A16
:101C5000A446012300210020FFF7BAF8BD4AA4469C
:101C600001230A210020FFF7B3F8B74B1B78032BA1
:101C700006D1B64AA44601230A210020FFF7A8F89E
:101C8000B54AA446012316210020FFF7A1F8AE4B68
:101C90001B78042B06D1AD4AA4460123162100204F
:101CA000FFF796F8AD4AA446012320210020FFF754
:101CB0008FF8A54B1B78052B06D1A44AA446012317
:101CC00020210020FFF784F8A54AA44601232A21F9
:101CD0000020FFF77DF89C4B1B78062B06D19B4A12
:101CE000A44601232A210020FFF772F89D4AA4464A
:101CF000012335210020FFF76BF8934B1B78002B55
:101D000006D1924AA446012335210020FFF760F84E
:101D100002F088F80200944B1B68D31A934A93424E
:101D200000D8E1E080239B0191480022190002F0D5
:101D3000E8FA01F083F93826BB198E4A1A600022AE
:101D40001A7124257B19180013231A00002104F0AE
:101D5000B1FBB91988483223052203F009FE79192D
:101D600085483223122203F0A3FE02F05BF8020042
:101D70007D4B1A607B195B7C0D2B05D07B191322E0
:101D80002021180004F096FB80239B017848012253
:101D9000190002F0B6FA242579191C26BB19052270
:101DA000180004F08FFB754AA44601232121472027
:101DB000FFF70EF8BA19A446012321215C20FFF792
:101DC00007F87B19991D1423FB180522180004F04D
:101DD00079FB6B4AA44601232B213920FEF7F8FF3B
:101DE0001423FA18A44601232B215C20FEF7F0FFF0
:101DF0007B190C3319000C257B190522180004F0FF
:101E000061FB604AA446012335213920FEF7E0FF3B
:101E10007A19A446012335215C20FEF7D9FFBB19AE
:101E2000180004F089FA02003E257B191A807B19FC
:101E300000229B5E1800FEF713FB031C5249181C7E
:101E4000FEF7F8F9031C181CFEF75CFF02000B00FC
:101E50001000190004F0BCFF02000B007D191000F7
:101E60001900FEF713FF03002B80BB191B782D2BE5
:101E700005D13E257B19012252421A8015E01C2310
:101E8000FB181B78202B05D13E23FB180B22524256
:101E90001A800AE03E217B1800229A5EFA239B00FA
:101EA0009A4202DB7B18394A1A80394AA446022337
:101EB0000C215C20FEF78CFF3E23FB1800229A5E6B
:101EC000344908257B19180004F0D2FA324AA44696
:101ED000012314213920FEF77BFF7A19A44602233F
:101EE0000C215C20FEF774FF01230093142337229A
:101EF0001421002001F0BCFB01230093342337227E
:101F00003421002001F0B4FB012300930A23802236
:101F10000A21372001F0ACFB012300934023372234
:101F20000021372001F0A4FB012300931E2380220F
:101F30001E21372001F09CFB01F00EFAC046BD4681
:101F400011B0F0BDCC6F000881010020C86F0008FF
:101F5000D46F0008DC6F0008E46F0008EC6F000825
:101F6000F46F0008C06F0008840100201405000011
:101F7000000800484343530DF0000020FC6F0008A8
:101F80000070000808700008CDCC8C40E70300000A
:101F9000107000081470000818700008F0B589B0BF
:101FA00000AF644663467B60C04601F03BFF020021
:101FB0002A4B1B68D31A2A4A9342F6D980239B01E5
:101FC00028480022190002F09CF91826BB19264A5D
:101FD0001168196092889A800C257B1918000A23D1
:101FE0001A00002104F066FA01F028F8B9191F4818
:101FF0003223062203F0BCFC79191C4832230A2242
:1020000003F056FD01F00EFF0200144B1A607B191D
:102010005B794F2B0BD17B199B794B2B07D1144A42
:10202000A446012300210720FFF7DCFA06E0114A4D
:10203000A446012300210720FFF7D4FA80239B0147
:1020400008480122190002F05CF9FA239B001800ED
:1020500001F0F2FEC046BD4609B0F0BD840100208B
:10206000130500000008004830700008F000002050
:102070002070000828700008F0B589B000AF6446F1
:1020800063467B60C04601F0CDFE02002B4B1B680F
:10209000D31A2B4A9342F6D980239B012948002268
:1020A000190002F02EF91826BB19274A1168196089
:1020B0009188998092799A710C257B1918000A23CE
:1020C0001A00002104F0F6F900F0B8FFB9191F4812
:1020D0003223072203F04CFC79191C4832230A22D0
:1020E00003F0E6FC01F09EFE0200144B1A607B191F
:1020F0009B794F2B0BD17B19DB794B2B07D1144AE2
:10210000A446012316210720FFF76CFA06E0114AC6
:10211000A446012316210720FFF764FA80239B01C0
:1021200008480122190002F0ECF8FA239B0018007D
:1021300001F082FEC046BD4609B0F0BD840100201A
:10214000130500000008004838700008F000002067
:102150002070000828700008F0B589B000AF644610
:1021600063467B60C04601F05DFE02002A4B1B689F
:10217000D31A2A4A9342F6D980239B012848002289
:10218000190002F0BEF81826BB19264A116819601A
:1021900092889A800C257B1918000A231A000021C6
:1021A00004F088F900F04AFFB9191F4832230622CB
:1021B00003F0DEFB79191C4832230A2203F078FC75
:1021C00001F030FE0200144B1A607B195B794F2B33
:1021D0000BD17B199B794B2B07D1144AA4460123C1
:1021E00020210720FFF7FEF906E0114AA44601234B
:1021F00020210720FFF7F6F980239B0108480122E0
:10220000190002F07EF8FA239B00180001F014FE7A
:10221000C046BD4609B0F0BD840100201305000092
:102220000008004840700008F000002020700008FE
:1022300028700008F0B589B000AF644663467B6043
:10224000C04601F0EFFD02002B4B1B68D31A2B4A4E
:102250009342F6D980239B0129480022190002F0FD
:1022600050F81826BB19274A11681960918899807F
:1022700092799A710C257B1918000A231A00002103
:1022800004F018F900F0DAFEB9191F4832230722CA
:1022900003F06EFB79191C4832230A2203F008FC74
:1022A00001F0C0FD0200144B1A607B199B794F2B83
:1022B0000BD17B19DB794B2B07D1144AA4460123A0
:1022C0002A210720FFF78EF906E0114AA4460123D0
:1022D0002A210720FFF786F980239B010848012265
:1022E000190002F00EF8FA239B00180001F0A4FD7B
:1022F000C046BD4609B0F0BD8401002013050000B2
:102300000008004848700008F00000202070000815
:1023100028700008B0B584B000AF644663467B60A7
:102320000F257B1916221A704E4AA446022300215B
:102330000020FEF74DFD4C4B1B78012B09D14B4B78
:102340001A787B191978A44614232320FFF7D8F8AC
:1023500009E0464B1A780F23FB181978A44602238C
:102360002320FFF7CDF8404B1B78022B0AD13F4BBF
:102370005A780F23FB181978A44614232E20FFF750
:10238000BFF809E0394B5A780F23FB181978A44697
:1023900002232E20FFF7B4F8354A0F257B19197850
:1023A000A44602233920FEF713FD2F4B1B78032B85
:1023B00009D12E4B9A787B191978A446142344200E
:1023C000FFF79EF809E0294B9A780F23FB1819783C
:1023D000A44602234420FFF793F8234B1B78042BD9
:1023E0000AD1224BDA780F23FB181978A44614235C
:1023F0004F20FFF785F809E01C4BDA780F23FB1814
:102400001978A44602234F20FFF77AF8164B1B7861
:10241000002B07D1174AA44614232D210020FEF7D4
:10242000D7FC06E0134AA44602232D210020FEF724
:10243000CFFC0D4B1B78052B07D10F4AA446142364
:102440002D216920FEF7C4FC06E00B4AA4460223B6
:102450002D216920FEF7BCFC00F07EFFC046BD4682
:1024600004B0B0BD50700008810100201C000020A5
:102470005C70000860700008B46E000890B585B00C
:1024800000AF644663467B60254AA44602230021D0
:102490000020FEF79DFC0F23FB1800221A7034E089
:1024A000204B1B780F217A1812789A4213D17B188F
:1024B0001B781A1C9200D2189218D318DBB204337E
:1024C000D8B27B181B783033DAB2A446142300212B
:1024D000FFF716F813E00F217B181B781A1C9200E7
:1024E000D2189218D318DBB20433D8B27B181B78F9
:1024F0003033DAB2A44602230021FFF701F80F219E
:102500007B181A787B1801321A700F23FB181B787E
:10251000092BC5D900F020FFC046BD4605B090BDCF
:102520006870000882010020F0B58BB000AF6446EF
:1025300063467B6001F02BFAC04601F073FC020099
:102540003B4B1B68D31A3B4A9342F6D980239B012D
:1025500039480022190001F0D4FE1C257B1918000F
:102560000A231A00002103F0A5FF344A34497B19DD
:10257000180003F07DFF7A19A446022316210B20D0
:10258000FFF730F82D4A2F497B19180003F070FF30
:10259000C8239B00180001F04FFC0C26BB19180043
:1025A0000F231A00002103F085FF00F047FD791981
:1025B000254832230A2203F0DBF9B91922483223D5
:1025C0000F2203F075FA01F02DFC0200184B1A607F
:1025D000BB199B7A4F2B11D1BB19DB7A4B2B0DD139
:1025E0001A4AA446022316210A20FEF7FBFF184BC5
:1025F00002221A70174B03221A7006E0164AA446EC
:10260000022316210A20FEF7EDFF80239B010A48D2
:102610000122190001F075FEFA239B00180001F059
:102620000BFC01F0B4F9C046BD460BB0F0BDC0468E
:102630008401002013050000000800481C00002051
:102640007870000884700008F00000209070000886
:1026500080010020810100209C70000890B583B0AB
:1026600000AF644663467B60384AA44601233221AA
:102670000020FEF7ADFB364B1B78002B06D1354A08
:10268000A446012332210020FEF7A2FB324AA446D1
:10269000012300210020FEF79BFB2D4B1B78012B13
:1026A00006D12C4AA446012300210020FEF790FB0E
:1026B0002A4AA44601230A210020FEF789FB244B65
:1026C0001B78022B06D1234AA44601230A210020AD
:1026D000FEF77EFB224AA446012314210020FEF7C8
:1026E00077FB1B4B1B78032B06D11A4AA446012308
:1026F00014210020FEF76CFB1A4AA44601231E2178
:102700000020FEF765FB124B1B78042B06D1114A03
:10271000A44601231E210020FEF75AFB124AA446BC
:10272000012328210020FEF753FB094B1B78052BC2
:1027300006D1084AA446012328210020FEF748FBC1
:1027400000F00AFEC046BD4603B090BDC06F000851
:1027500081010020C86F0008A8700008B47000084C
:10276000C0700008CC700008D8700008F0B589B0BF
:1027700000AF644663467B60C04601F053FB020035
:10278000334B1B68D31A334A9342F6D980239B01FB
:1027900031480022190001F0B4FD304AA44601235B
:1027A00000210720FEF714FB1826BB192C4A1168DC
:1027B00019609188998092799A710C257B1918007B
:1027C0000A231A00002103F075FE00F037FCB91946
:1027D00024483223072203F0CBF879192148322309
:1027E0000A2203F065F901F01DFB0200184B1A6084
:1027F0007B191B784F2B07D11B4AA44601230021CC
:102800000720FEF7EFFE13E00C23FB181B78552B77
:1028100007D1164AA446012300210720FEF7E2FE55
:1028200006E0134AA446012300210720FEF7DAFE42
:1028300080239B0108480122190001F062FDFA2360
:102840009B00180001F0F8FAC046BD4609B0F0BD83
:10285000840100201305000000080048E47000080F
:1028600004710008F0000020F0700008F470000807
:10287000FC700008F0B589B000AF644663467B6029
:10288000C04601F0CFFA02002C4B1B68D31A2C4A29
:102890009342F6D980239B012A480022190001F0B7
:1028A00030FD294AA44601230A210720FEF790FAA9
:1028B0001426BB19254A03CA03C312881A800825A7
:1028C0007B1918000A231A00002103F0F3FD00F021
:1028D000B5FBB9191E4832230A2203F049F87919C9
:1028E0001B4832230A2203F0E3F801F09BFA0200AE
:1028F000124B1A607B191B784F2B07D1154AA4463F
:1029000001230A210720FEF76DFE06E0124AA446C5
:1029100001230A210720FEF765FE80239B01094859
:102920000122190001F0EDFCFA239B00180001F0D0
:1029300083FAC046BD4609B0F0BDC0468401002000
:102940001305000000080048E47000080C7100083E
:10295000F0000020B46E0008FC700008F0B589B0EB
:1029600000AF644663467B60C04601F05BFA02003C
:102970002C4B1B68D31A2C4A9342F6D980239B0117
:102980002A480022190001F0BCFC294AA446012370
:1029900014210720FEF71CFA1826BB19254A1168D6
:1029A000196092889A800C257B1918000A231A0056
:1029B000002103F07FFD00F041FBB9191E483223CE
:1029C000062202F0D5FF79191B4832230A2203F0B0
:1029D0006FF801F027FA0200124B1A607B191B787E
:1029E000552B07D1154AA446012314210720FEF7D1
:1029F000F9FD06E0124AA446012314210720FEF740
:102A0000F1FD80239B0109480122190001F079FCA6
:102A1000FA239B00180001F00FFAC046BD4609B02A
:102A2000F0BDC046840100201305000000080048E6
:102A3000E470000818710008F0000020B46E00086F
:102A4000FC700008F0B589B000AF644663467B6057
:102A5000C04601F0E7F902002B4B1B68D31A2B4A42
:102A60009342F6D92A4AA44601231E210720FEF7E5
:102A7000AFF910257B1918000F231A00002103F06D
:102A800019FD80239B0123480022190001F039FC25
:102A90000826BB19204A03CA03C300F0CFFAB919AC
:102AA0001E483223082202F063FF79191B483223A3
:102AB0000F2202F0FDFF01F0B5F90200124B1A607F
:102AC0007B19DB794F2B07D1154AA44601231E2120
:102AD0000720FEF787FD06E0124AA44601231E21C7
:102AE0000720FEF77FFD80239B010A480122190081
:102AF00001F007FCFA239B00180001F09DF9C04685
:102B0000BD4609B0F0BDC046840100201305000099
:102B1000E47000080008004820710008F000002060
:102B2000B46E0008FC700008F0B589B000AF6446D0
:102B300063467B60C04601F075F902002B4B1B68B1
:102B4000D31A2B4A9342F6D92A4AA44601232821B4
:102B50000720FEF73DF910257B1918000F231A00F6
:102B6000002103F0A7FC80239B01234800221900C9
:102B700001F0C7FB0826BB19204A03CA03C300F0B3
:102B80005DFAB9191E483223082202F0F1FE7919C4
:102B90001B4832230F2202F08BFF01F043F90200A1
:102BA000124B1A607B195B784F2B07D1154AA4464C
:102BB000012328210720FEF715FD06E0124AA4464E
:102BC000012328210720FEF70DFD80239B010A48E1
:102BD0000122190001F095FBFA239B00180001F077
:102BE0002BF9C046BD4609B0F0BDC04684010020A7
:102BF00013050000E4700008000800482871000870
:102C0000F0000020B46E0008FC700008F0B5A7B01A
:102C100000AF644663467B6001F004F90200A44BF8
:102C20001B68D31AA34A934200D83CE180239B013E
:102C3000A1480022190001F064FB9426BB199F4AA9
:102C40001A8008257B19180049231A00002103F077
:102C500031FC00F0F3F9B91999483223022202F04D
:102C600087FE791996486423492202F021FF01F07A
:102C7000D9F802008E4B1A608C26BB191800062367
:102C80001A00002103F016FC8423FB181800062309
:102C90001A00002103F00EFC7C22BB18180006234A
:102CA0001A00002103F006FC74217B18180006238B
:102CB0001A00002103F0FEFB6C203B1818000623CD
:102CC0001A00002103F0F6FB64217B18180006238C
:102CD0001A00002103F0EEFB5C23FB18180006230A
:102CE0001A00002103F0E6FB54217B18180006238C
:102CF0001A00002103F0DEFB7B1919002B31BB19F0
:102D00000522180003F0DEFB7B1919003131842302
:102D1000FB180522180003F0D5FB7B1919001931A7
:102D20006C203B180522180003F0CCFB7B1919001E
:102D30001F316422BB180522180003F0C3FB7B1966
:102D4000D91D5C23FB180522180003F0BBFB7B197F
:102D50001900253154203B180522180003F0B2FB5E
:102D60007B19190013317C22BB180522180003F0CF
:102D7000A9FB7B1919000D3174257B190522180058
:102D800003F0A0FB4F4AA446012300210020FEF7D8
:102D90001FF8BA19A446012300211520FEF718F8E0
:102DA000494AA446012300213F20FEF711F884235D
:102DB000FA18A446012300215B20FEF709F8434AD4
:102DC000A44601230F210020FEF702F86C203A18D8
:102DD000A44601230F211520FDF7FAFF3C4AA44623
:102DE00001230F213F20FDF7F3FF64217A18A44649
:102DF00001230F215B20FDF7EBFF364AA446012398
:102E000019210020FDF7E4FF5C23FA18A4460123F2
:102E100019211520FDF7DCFF2F4AA44601231921B3
:102E20003F20FDF7D5FF54203A18A446012319216D
:102E30005B20FDF7CDFF294AA4460123282100206D
:102E4000FDF7C6FF7C22BA18A446012328211520CD
:102E5000FDF7BEFF224AA446012328213F20FDF7AB
:102E6000B7FF7A19A446012328215B20FDF7B0FFA4
:102E70001C4AA446012335210020FDF7A9FF1A4B67
:102E80001B78002B06D1194AA446012335210020C6
:102E9000FDF79EFF80239B0107480122190001F0E6
:102EA00030FA00F059FAC046BD4627B0F0BDC04622
:102EB000840100201405000000080048460D0000B1
:102EC000F0000020307100083C71000848710008D3
:102ED00054710008607100086C7100087871000876
:102EE00084710008C06F000881010020C86F0008CD
:102EF00090B595B000AF20243B19180030231A007C
:102F0000002103F0D7FA1023FB18180010231A0031
:102F1000002103F0CFFA3B00180010231A00002113
:102F200003F0C8FA21007B1803221A607B180122E3
:102F30005A607B180122DA607B1810221A617B1814
:102F400002221A627B18802252025A627B18802267
:102F500052039A627B180022DA627B18180001F093
:102F600087FF031E01D000F02DF910217B180722E6
:102F70001A607B1802225A607B1800229A607B1824
:102F80000022DA607B180121180002F08BFA031E80
:102F900001D000F017F93B0020221A603B0000220C
:102FA000DA603B00180002F0C1FB031E01D000F004
:102FB00009F9C046BD4615B090BD000080B500AF10
:102FC0001B4B1C4A1A601A4B1B4A5A60184B0022B2
:102FD0009A60174B0122DA60154B00221A61144BDC
:102FE00000225A61124B00229A61114B0022DA61D1
:102FF0000F4B00221A620E4B180001F09FF9031EBE
:1030000001D000F0DFF80A4B0021180001F098FE13
:10301000031E01D000F0D6F8054B0021180001F086
:10302000DBFE031E01D000F0CDF8C046BD4680BDDA
:103030009C000020005400400A02100080B500AF40
:10304000144B154A1A60134B962292015A60114B89
:1030500000229A600F4B0022DA600E4B00221A61A8
:103060000C4B0C225A610B4B00229A61094B002237
:10307000DA61084B00221A62064B00225A62054BA5
:10308000180002F021FC031E01D000F09BF8C0469E
:10309000BD4680BDF00000200044004090B58BB0DC
:1030A00000AF14243B19180014231A00002103F068
:1030B00001FA414B5A69404B802109030A435A6186
:1030C0003D4B5A6980231B0313403B613B693A4BDC
:1030D0005A69394B8021C9030A435A61364B5A69F0
:1030E0008023DB031340FB60FB68334B5A69324B90
:1030F000802189020A435A612F4B5A6980239B021F
:103100001340BB60BB682C4B5A692B4B8021C90212
:103110000A435A61284B5A698023DB0213407B60C3
:103120007B6880239B0125480022190001F0E9F803
:1031300080235B0022480022190001F0E2F83B19CD
:10314000802292011A603B1901225A603B19002229
:103150009A603B190022DA603B19184A19001000E6
:1031600000F042FF21007B18802252011A600C00FF
:103170003B1900225A603B1901229A603B19104A00
:103180001900100000F030FF21007B18802252004F
:103190001A607B1801225A607B1800229A607B1803
:1031A0000022DA607B18064A1900100000F01CFFAC
:1031B000C046BD460BB090BD00100240000800485C
:1031C0000004004880B500AF72B6C046C046FDE7B7
:1031D00080B582B000AF00F0E5FB5B4B5B4801229D
:1031E000782101F07BFA031E01D00023A8E0584BA0
:1031F0007B6002E07B68013B7B607B68002BF9D140
:10320000AE220021782000F04DFC20220021782001
:1032100000F048FC10220021782000F043FCB0228E
:103220000021782000F03EFCC8220021782000F028
:1032300039FC00220021782000F034FC102200210B
:10324000782000F02FFC40220021782000F02AFC9A
:1032500081220021782000F025FCFF220021782027
:1032600000F020FCA1220021782000F01BFCA62207
:103270000021782000F016FCA8220021782000F020
:1032800011FC3F220021782000F00CFCA422002138
:10329000782000F007FCD3220021782000F002FC07
:1032A00000220021782000F0FDFBD52200217820AB
:1032B00000F0F8FBF0220021782000F0F3FBD92287
:1032C0000021782000F0EEFB22220021782000F07F
:1032D000E9FBDA220021782000F0E4FB1222002131
:1032E000782000F0DFFBDB220021782000F0DAFB01
:1032F00020220021782000F0D5FB8D2200217820AB
:1033000000F0D0FB14220021782000F0CBFBAF228C
:103310000021782000F0C6FB2E220021782000F04A
:10332000C1FB002000F050F800F016F8094B002215
:103330001A80084B00225A80064B01225A71012341
:103340001800BD4602B080BD204E00009C00002049
:10335000C4090000A805002080B582B000AFFB1DA5
:1033600000221A7025E0FB1D1B78503BDBB21A00CF
:103370000021782000F096FB00220021782000F048
:1033800091FB10220021782000F08CFBFB1D1A78A5
:1033900013005B019B189B001A000A4BD218842370
:1033A0004021782000F012FBFB1D1A78FB1D013232
:1033B0001A70FB1D1B78072BD5D9C046C046BD46E9
:1033C00002B080BD8801002080B582B000AF02004D
:1033D000FB1D1A70FB1D1B78002B01D1002300E0A0
:1033E000FF238422D2000448190003F063F8C0468A
:1033F000BD4602B080BDC0468801002090B583B0B4
:1034000000AF040008001100BB1D221C1A803B1DE8
:10341000021C1A80FB1C0A1C1A70BB1D1B88832B04
:103420005ED83B1D1B883F2B5AD82F4B1B79002B96
:1034300006D0FB1C1B785A425341DAB2FB1C1A70AF
:10344000FB1C1B78012B24D1BB1D1A883B1D1B883C
:10345000DB0898B201000B005B015B189B00D318DE
:10346000224AD35C5AB23B1D1B8807210B40012125
:1034700099400B005BB213435CB2BB1D1A8801007C
:103480000B005B015B189B00D318E1B2174AD154C3
:1034900027E0BB1D1A883B1D1B88DB0898B2010082
:1034A0000B005B015B189B00D318104AD35C5BB226
:1034B0003A1D128807210A40012191400A0052B2A8
:1034C000D24352B213405CB2BB1D1A8801000B00FC
:1034D0005B015B189B00D318E1B2044AD15400E0B1
:1034E000C046BD4603B090BDA8050020880100205D
:1034F00080B582B000AF0200BB1D1A803B1D0A1CC4
:103500001A80064BBA1D12881A80044B3A1D128885
:103510005A80C046BD4602B080BDC046A805002006
:1035200080B586B000AF39601100FB1D021C1A7017
:10353000BB1D0A1C1A703A4B1B881A003B681B788B
:10354000D318832B07DC364B5B881A003B685B780B
:10355000D3183F2B01DD00235DE000237B614AE0AF
:103560003B685A68FB1D1B78203B396849784B4300
:1035700019007B69CB185B00D3181B88FB60002304
:103580003B612FE0FA683B699A4080231B0213409D
:1035900011D0234B1A883B699BB2D31898B2204BA9
:1035A0005A887B699BB2D31899B2BB1D1B781A004D
:1035B000FFF724FF13E01A4B1A883B699BB2D3181C
:1035C00098B2174B5A887B699BB2D31899B2BB1D2E
:1035D0001B785A425341DBB21A00FFF70FFF3B69D9
:1035E00001333B613B681B781A003B699342C9D3A6
:1035F0007B6901337B613B685B781A007B6993428E
:10360000AED3074B1B883A6812789B189AB2044BCA
:103610001A80FB1D1B781800BD4606B080BDC04651
:10362000A805002080B584B000AFF860B960FB1D2C
:103630001A7013E0FB681878FB1D1A78BB68190034
:10364000FFF76EFF03001A00FB681B789A4202D056
:10365000FB681B7808E0FB680133FB60FB681B78A4
:10366000002BE7D1FB681B781800BD4604B080BD75
:10367000B0B586B000AF05000C0010001900BB1DEE
:103680002A1C1A803B1D221C1A80BB1C021C1A809B
:103690003B000A1C1A80BB1D1B88832B02D9BB1D53
:1036A00083221A80BB1C1B88832B02D9BB1C83225C
:1036B0001A803B1D1B883F2B02D93B1D3F221A80DD
:1036C0003B001B883F2B02D93B003F221A80BA1DCA
:1036D000BB1C12881B889A4207D2BA1CBB1D1288D9
:1036E0001B88D31A9BB21BB206E0BA1DBB1C128802
:1036F0001B88D31A9BB21BB21222BA1813803A1D30
:103700003B0012881B889A4207D23A003B1D128860
:103710001B88D31A9BB21BB206E03A1D3B001288ED
:103720001B88D31A9BB21BB21022BA181380BA1D81
:10373000BB1C12881B889A4201D2012201E001239E
:103740005A420E23FB181A803A1D3B0012881B8830
:103750009A4201D2012201E001235A420C23FB18B4
:103760001A8012217A181023FB180020125E002004
:103770001B5E9A4208DD7B1800229B5E002B00DA5C
:1037800001335B101BB209E01023FB1800229B5E83
:10379000002B00DA01335B105B421BB21622BA1811
:1037A00013801223FB1800229B5E002B48D13A00A5
:1037B0003B1D12881B889A420CD208217B183A00C4
:1037C00012881A803B003A1D12881A803B1D7A1815
:1037D00012881A80BA1CBB1D12881B889A420CD210
:1037E00008217B18BA1C12881A80BB1CBA1D1288CB
:1037F0001A80BB1D7A1812881A801423FB183A1DF0
:1038000012881A8013E014243B1919882823FB1806
:103810001A78BB1D1B881800FFF7F0FD21007B18EC
:1038200000229B5E9BB201339AB27B181A8014234C
:10383000FB1800229A5E3B001B889A42E3DDA3E05E
:103840001023FB1800229B5E002B48D13A003B1D41
:1038500012881B889A420CD208217B183A001288E1
:103860001A803B003A1D12881A803B1D7A18128874
:103870001A80BA1CBB1D12881B889A420CD20821E0
:103880007B18BA1C12881A80BB1CBA1D12881A80B9
:10389000BB1D7A1812881A801423FB18BA1D1288CF
:1038A0001A8013E014243B1918882823FB181A786F
:1038B0003B1D1B881900FFF7A1FD21007B1800228A
:1038C0009B5E9BB201339AB27B181A801423FB18BB
:1038D00000229A5EBB1C1B889A42E3DD54E0282339
:1038E000FB181A783B1D1988BB1D1B881800FFF7B1
:1038F00085FDBA1DBB1C12881B889A4205D13A1D52
:103900003B0012881B889A423DD00A203B181621A2
:103910007A1812881A803B1800229A5E1223FB182C
:1039200000201B5E5B429A4210DD7B181A88102330
:10393000FB181B88D31A9AB27B181A800E23FB1827
:103940001988BB1DBA1D12888A181A800A23FA1812
:103950001023FB180021525E00215B5E9A42BEDA02
:1039600016217B181A881223FB181B88D3189AB2C9
:103970007B181A800C23FB1819883B1D3A1D1288EE
:103980008A181A80ABE7C046BD4606B0B0BD80B508
:1039900000AF0020FFF718FDFFF7DEFCC046BD4674
:1039A00080BD000080B582B000AF074B7B6002E0B5
:1039B0007B68013B7B607B68002BF9D1C046C04629
:1039C000BD4602B080BDC04690D00300B0B5C6B0C1
:1039D00002AF040008003A6019002D4B88256D00E5
:1039E0005B19DB19221C1A702A4B2C001B19DB19DE
:1039F000021C1A70284B20001B18DB190A1C1A80A5
:103A0000264B1B18DB19234A1218D21912781A7088
:103A10001023FF33FB1800221A7014E01020FF302F
:103A20003B181B783A68D2183B181B780133117881
:103A30001A4A882464001219D219D1543B181A78F2
:103A40003B1801321A701023FF33FB181B789BB20E
:103A5000114A882149005218D21912889A42DDD899
:103A60000B4B0A009B18DB191B7899B20A4B9B1869
:103A7000DB191B8801339BB20C22BA1808480A24B0
:103A8000009400F001FDC046BD4644B0B0BDC04644
:103A9000F7FEFFFFF6FEFFFFF4FEFFFFFCFEFFFF59
:103AA0009C00002090B587B002AF04000800110010
:103AB000FB1D221C1A70BB1D021C1A707B1D0A1CE8
:103AC0001A700C203B18BA1D12781A703B187A1D18
:103AD00012785A70FB1D1B7899B23A1804480A23D1
:103AE0000093022300F0D0FCC046BD4605B090BD57
:103AF0009C00002080B582B000AF0F4B9A690E4B3E
:103B000001210A439A610C4B9B69012213407B609F
:103B10007B68094BDA69084B802149050A43DA6161
:103B2000054BDA6980235B0513403B603B68C04668
:103B3000BD4602B080BDC0460010024090B58BB0BB
:103B400000AF786014243B19180014231A000021D8
:103B500002F0B0FC7B681B681C4A934231D11C4BBD
:103B60005A691B4B8021C9020A435A61184B5A6992
:103B70008023DB0213403B613B6921007B18C0229C
:103B80001A607B1812225A607B1800229A607B18F8
:103B90000322DA607B1801221A617B180D4A190092
:103BA000100000F021FA0A4BDA69094B80218903E1
:103BB0000A43DA61064BDA6980239B031340FB60FA
:103BC000FB68C046BD460BB090BDC04600540040E7
:103BD000001002400004004890B58BB000AF786040
:103BE00014243B19180014231A00002102F062FC6F
:103BF0007B681B681C4A934232D11C4BDA691B4B11
:103C0000802189020A43DA61184BDA6980239B021A
:103C100013403B613B69154B5A69144B8021890263
:103C20000A435A61114B5A6980239B021340FB607F
:103C3000FB6821007B180C221A607B1802225A6054
:103C40007B1800229A607B180322DA607B1801221D
:103C50001A617A189023DB051100180000F0C4F9EE
:103C6000C046BD460BB090BD00440040001002406D
:103C700080B500AFC046FDE780B500AFC046FDE7A8
:103C800080B500AFC046BD4680BD80B500AFC04620
:103C9000BD4680BD80B500AF00F0B2F8C046BD465D
:103CA00080BD000080B586B000AF7860144A154B27
:103CB000D31A7B617B693B61134B1B68002B02D1DC
:103CC000114B124A1A60104B1A687B68D3183A6974
:103CD0009A4207D202F00AFC03000C221A60012368
:103CE0005B4209E0084B1B68FB60074B1A687B6866
:103CF000D218054B1A60FB681800BD4606B080BD9F
:103D00000020002000040000B00500200007002073
:103D100080B500AFC046BD4680BD00000D48854659
:103D2000FFF7F6FF0C480D490D4A002302E0D45876
:103D3000C4500433C4188C42F9D30A4A0A4C0023F5
:103D400001E013600432A242FBD302F0D5FBFDF781
:103D5000B1F8FEE7002000200000002080000020D5
:103D6000949B00088000002000070020FEE7000070
:103D700080B500AF074B1A68064B10210A431A6042
:103D8000032000F009F8FFF7B5FE00231800BD4638
:103D900080BDC0460020024090B583B000AF78607F
:103DA000144B1C68144B1B781900FA239800FCF77D
:103DB000B5F9030019002000FCF7B0F90300180062
:103DC00000F005F9031E01D001230FE07B68032BEF
:103DD0000BD8796801235B420022180000F0E2F85A
:103DE000064B7A681A60002300E001231800BD46E4
:103DF00003B090BD240000202C00002028000020EB
:103E000080B500AF054B1B781A00054B1B68D21814
:103E1000034B1A60C046BD4680BDC0462C00002042
:103E2000B405002080B500AF024B1B681800BD46EA
:103E300080BDC046B405002080B584B000AF786076
:103E4000FFF7F0FF0300BB607B68FB60FB6801339A
:103E500005D00A4B1B781A00FB689B18FB60C04614
:103E6000FFF7E0FF0200BB68D31AFA689A42F7D85E
:103E7000C046C046BD4604B080BDC0462C000020F0
:103E800090B583B000AF02003960FB1D1A70FB1DB6
:103E90001B787F2B28D82F4AFB1D1B785BB29B0811
:103EA000C0339B009B58FA1D1278110003220A4070
:103EB000D200FF2191400A00D2431A4011003B6812
:103EC0009B01FF221A40FB1D1B78180003230340AF
:103ED000DB009A401F48FB1D1B785BB29B080A431E
:103EE000C0339B001A5031E01B4AFB1D1B781900A0
:103EF0000F230B40083B9B0806339B00D318043369
:103F00001B68FA1D1278110003220A40D200FF211B
:103F100091400A00D2431A4011003B689B01FF22E6
:103F20001A40FB1D1B78180003230340DB009A4056
:103F30000948FB1D1B781C000F232340083B9B08EE
:103F40000A4306339B00C31804331A60C046BD46BB
:103F500003B090BD00E100E000ED00E080B582B06C
:103F600000AF78607B685A1E80235B049A4201D3BD
:103F7000012310E00A4B7A68013A5A6001235B4240
:103F800003211800FFF77CFF054B00229A60044BC9
:103F900007221A6000231800BD4602B080BDC0464B
:103FA00010E000E080B584B000AFB9607A600F2106
:103FB0007B18021C1A70BA687B181B785BB2110060
:103FC0001800FFF75DFFC046BD4604B080BD80B558
:103FD00082B000AF78607B681800FFF7BFFF030076
:103FE0001800BD4602B080BD80B586B000AF7860D5
:103FF000396000237B614FE13B681B6801217A69CE
:1040000091400A001340FB60FB68002B00D140E1A7
:104010003B685B6803221340012B05D03B685B685B
:1040200003221340022B30D17B689B683B617B6984
:104030005B0003229A401300DA433B6913403B6163
:104040003B68DA687B695B009A4013003A69134366
:104050003B617B683A699A607B685B683B610122DF
:104060007B699A401300DA433B6913403B613B682C
:104070005B681B0901221A407B699A4013003A6968
:1040800013433B617B683A695A603B685B68032273
:104090001340032B17D07B68DB683B617B695B00B7
:1040A00003229A401300DA433B6913403B613B68AB
:1040B0009A687B695B009A4013003A6913433B613D
:1040C0007B683A69DA603B685B6803221340022B25
:1040D00023D17B69DA087B6808329200D3583B61B0
:1040E0007B69072213409B000F229A401300DA439A
:1040F0003B6913403B613B681A697B6907210B40B0
:104100009B009A4013003A6913433B617B69DA08CC
:104110007B68083292003969D1507B681B683B612B
:104120007B695B0003229A401300DA433B6913402A
:104130003B613B685B6803221A407B695B009A40E5
:1041400013003A6913433B617B683A691A603B6824
:104150005A68C0239B02134000D19AE0544B9A69DD
:10416000534B01210A439A61514B9B690122134031
:10417000BB60BB684F4A7B699B0802339B009B581E
:104180003B617B69032213409B000F229A4013007E
:10419000DA433B6913403B617A689023DB059A421E
:1041A00013D07B68444A93420DD07B68434A9342C4
:1041B00007D07B68424A934201D1032306E00523DE
:1041C00004E0022302E0012300E000237A690321D6
:1041D0000A40920093403A6913433B6135497B6939
:1041E0009B0802339B003A695A50364B9B683B61EF
:1041F000FB68DA433B6913403B613B685A688023A4
:104200005B03134003D03A69FB6813433B612D4BBA
:104210003A699A602B4BDB683B61FB68DA433B6988
:1042200013403B613B685A6880239B03134003D0D3
:104230003A69FB6813433B61224B3A69DA60214BD0
:104240005B683B61FB68DA433B6913403B613B6859
:104250005A6880239B02134003D03A69FB681343DA
:104260003B61184B3A695A60164B1B683B61FB680F
:10427000DA433B6913403B613B685A6880235B0229
:10428000134003D03A69FB6813433B610D4B3A6915
:104290001A607B6901337B613B681A687B69DA408D
:1042A000131E00D0A8E6C046C046BD4606B080BD7D
:1042B00000100240000001400004004800080048CF
:1042C000000C00480004014080B584B000AF786065
:1042D0000A00BB1C1A807B681B69BA1C1288134039
:1042E00004D00F23FB1801221A7003E00F23FB18E0
:1042F00000221A700F23FB181B781800BD4604B06B
:1043000080BD80B582B000AF786008001100BB1C92
:10431000021C1A807B1C0A1C1A707B1C1B78002B49
:1043200004D0BB1C1A887B689A6103E0BB1C1A8806
:104330007B689A62C046BD4602B080BD80B582B03F
:1043400000AF78607B68002B01D101238FE07B6890
:1043500041229B5CDBB2002B07D17B68402200210D
:1043600099547B681800FFF7E9FB7B684122242100
:1043700099547B681B681A687B681B6801218A4313
:104380001A607B685A687B681B683B490A401A615F
:104390007B681B689A687B681B6838490A409A608A
:1043A0007B68DB68012B08D17B689A687B681B6897
:1043B000802109020A439A6007E07B689A687B685B
:1043C0001B68842109020A439A607B68DB68022B20
:1043D00009D17B681B685A687B681B6880210901CA
:1043E0000A435A6007E07B681B685A687B681B6851
:1043F00023490A405A607B681B685A687B681B68BF
:1044000020490A435A607B681B68DA687B681B682E
:104410001A490A40DA607B681A697B685B691A434B
:1044200011007B689B691A027B681B680A43DA608B
:104430007B68D9697B681A6A7B681B680A431A60C3
:104440007B681B681A687B681B6801210A431A6035
:104450007B6800225A647B684122202199547B6842
:1044600000221A637B68422200219954002318001D
:10447000BD4602B080BDC046FFFFFFF0FF7FFFFFDB
:10448000FFF7FFFF0080000290B589B002AFF8602F
:1044900008007A6019000A23FB18021C1A800823FE
:1044A000FB180A1C1A80FB6841229B5CDBB2202BA4
:1044B00000D00AE1FB6840229B5C012B01D1022362
:1044C00004E1FB68402201219954FFF7ABFC030093
:1044D0003B6180231902F8683B690093192301228C
:1044E00000F01AFA031E01D00123EFE0FB6841221D
:1044F00021219954FB68422210219954FB68002223
:104500005A64FB687A685A62FB680822BA181288F3
:104510005A85FB6800225A63FB685B8D9BB2FF2BB8
:1045200006D9FB68FF221A8580235B047B6107E0C4
:10453000FB685B8D9AB2FB681A8580239B047B61C4
:10454000FB681B8D002B27D0FB685B6A1A78FB6821
:104550001B689A62FB685B6A5A1CFB685A62FB68BC
:104560005B8D9BB2013B9AB2FB685A85FB681B8D41
:10457000013B9AB2FB681A85FB681B8DDBB20133E5
:10458000DAB27C690A23FB181988F868514B00934A
:10459000230000F09BFB6FE0FB681B8DDAB27C69A7
:1045A0000A23FB181988F8684A4B0093230000F08F
:1045B0008DFB61E03A69B96AFB68180000F004FA03
:1045C000031E01D0012381E0FB685B6A1A78FB6857
:1045D0001B689A62FB685B6A5A1CFB685A62FB683C
:1045E0005B8D9BB2013B9AB2FB685A85FB681B8DC1
:1045F000013B9AB2FB681A85FB685B8D9BB2002B6E
:104600003AD0FB681B8D002B36D1BA6AF8683B693B
:10461000009313000022802100F07EF9031E01D0D8
:10462000012353E0FB685B8D9BB2FF2B11D9FB6824
:10463000FF221A85FB681B8DDAB280235C040A23F3
:10464000FB181988F86800230093230000F03EFB54
:1046500012E0FB685B8D9AB2FB681A85FB681B8DC4
:10466000DAB280239C040A23FB181988F868002317
:104670000093230000F02AFBFB685B8D9BB2002BAC
:1046800098D13A69B96AFB68180000F0E3F9031E93
:1046900001D001231AE0FB681B682022DA61FB6865
:1046A0001B685A68FB681B680B490A405A60FB6824
:1046B000412220219954FB68422200219954FB6831
:1046C000402200219954002300E002231800BD4637
:1046D00007B090BD0020008000E800FE80B58AB0E1
:1046E00002AFF8607A603B600A23FB180A1C1A804C
:1046F00000237B61FB6841229B5CDBB2202B00D056
:10470000DFE0FB681B689A6980231B021A40802344
:104710001B029A4201D10223D4E0FB6840229B5C39
:10472000012B01D10223CDE0FB68402201219954E5
:10473000FB68412224219954FB6800225A64FB68DB
:10474000DB68012B07D10A23FB181B889B059B0DF7
:104750005E4A1A4306E00A23FB181B889B059B0D43
:104760005B4A1A43FB681B685A60FFF75BFB030058
:10477000BB61FB681B689B6920221340203B5A42A7
:104780005341DAB21F23FB181A70FB681B689B6940
:1047900010221340103B5A425341DAB21E23FB1839
:1047A0001A7035E03B6801331AD0FFF73BFB02007B
:1047B000BB69D31A3A689A4202D33B68002B0FD1E7
:1047C000FB68412220219954FB685B6C20221A432C
:1047D000FB685A64FB68402200219954012371E070
:1047E000FB681B689B6920221340203B5A425341BF
:1047F000DAB21F23FB181A70FB681B689B69102232
:104800001340103B5A425341DAB21E23FB181A7070
:104810001F23FB181B78002B04D11E23FB181B78C9
:10482000002BBFD0FB681B689B6910221340102B24
:104830001AD03A68F868BB6900931300002220215F
:1048400000F06AF8031E01D001233BE0FB681B68FF
:104850002022DA61FB68412220219954FB68402222
:104860000021995400232DE03A68F868BB69009351
:1048700013000022202100F04FF8031E01D0012375
:1048800020E0FB681B681022DA61FB681B682022AD
:10489000DA617B6901337B617B697A689A4200D96E
:1048A0004DE7FB68412220219954FB685B6C202274
:1048B0001A43FB685A64FB68402200219954012383
:1048C00000E002231800BD4608B080BD00200002B1
:1048D0000028000280B582B000AF78607B681B685A
:1048E0009B6902221340022B03D17B681B680022C4
:1048F0009A627B681B689B6901221340012B07D0D9
:104900007B681B689A697B681B6801210A439A616E
:10491000C046BD4602B080BD80B584B000AFF8602F
:10492000B9603B60FB1D1A703AE0BA693968FB68F0
:10493000180000F0D3F8031E01D0012340E03B68CB
:1049400001332DD0FFF76EFA0200BB69D31A3A6823
:104950009A4202D33B68002B22D1FB681B689B69FB
:10496000BA681340BA68D31A5A425341DBB21A00EC
:10497000FB1D1B789A4213D1FB685B6C20221A4303
:10498000FB685A64FB68412220219954FB6842224B
:1049900000219954FB6840220021995401230FE023
:1049A000FB681B689B69BA681340BA68D31A5A42FD
:1049B0005341DBB21A00FB1D1B789A42B5D000238D
:1049C0001800BD4604B080BD80B584B000AFF8606B
:1049D000B9607A6032E07A68B968FB68180000F064
:1049E0007DF8031E01D0012330E0BB68013325D0E0
:1049F000FFF718FA02007B68D31ABA689A4202D30A
:104A0000BB68002B1AD1FB681B689B69022213400C
:104A1000022B13D0FB685B6C20221A43FB685A649C
:104A2000FB68412220219954FB68422200219954BD
:104A3000FB68402200219954012307E0FB681B68B2
:104A40009B6902221340022BC5D100231800BD46EA
:104A500004B080BD80B584B000AFF860B9607A6002
:104A60002FE07A68B968FB68180000F037F8031E79
:104A700001D001232DE0FFF7D5F902007B68D31A9E
:104A8000BA689A4202D3BB68002B1AD1FB681B6834
:104A90009B6920221340202B13D0FB685B6C2022E3
:104AA0001A43FB685A64FB68412220219954FB6831
:104AB000422200219954FB6840220021995401238D
:104AC00007E0FB681B689B6920221340202BC8D19C
:104AD00000231800BD4604B080BD000080B58AB038
:104AE00000AFF860B9607A602723FB1800221A70C3
:104AF000FB681B689B69BB6100233B627B68FB61B1
:104B0000BB691022134000D179E0FB681B681022BA
:104B1000DA6157E02722BB18BA1812781A70BB68FE
:104B200001334FD0FFF77EF90200FB69D31ABA6850
:104B30009A4202D3BB68002B44D1FB681B685A68B9
:104B40008023DB0113407B6113203B18FA6842216C
:104B5000525C1A70FB681B689A6980231B021A401A
:104B600080231B029A4226D17A698023DB019A4274
:104B700021D03B181B78202B1DD0FB681B685A687E
:104B8000FB681B688021C9010A435A60FFF74AF994
:104B90000300FB610FE0FFF745F90200FB69D31A40
:104BA000192B08D93B6A202213433B622723FB18A9
:104BB00001221A7006E0FB681B689B6920221340E3
:104BC000202BE8D1FB681B689B6920221340202B17
:104BD00004D02723FB181B78002B9BD02723FB181E
:104BE0001B78002B03D1FB681B682022DA613B6A2B
:104BF000042213433B622723FB1801221A70FB682F
:104C00001B689B69BB61BA6980235B0013400CD0B1
:104C10003B6A012213433B62FB681B6880225200FF
:104C2000DA612723FB1801221A70BA698023DB009E
:104C300013400CD03B6A082213433B62FB681B689D
:104C40008022D200DA612723FB1801221A70BA6988
:104C500080239B0013400CD03B6A022213433B622B
:104C6000FB681B6880229200DA612723FB1801226F
:104C70001A702723FB181B78002B1DD0FB68180027
:104C8000FFF728FEFB681B685A68FB681B680E4923
:104C90000A405A60FB685A6C3B6A1A43FB685A64C4
:104CA000FB68412220219954FB684222002199543B
:104CB000FB684022002199542723FB181B78180019
:104CC000BD460AB080BDC04600E800FE90B587B082
:104CD00000AFF860080011007B600A243B19021C39
:104CE0001A8009203B180A1C1A703B191B889B0567
:104CF0009A0D3B181B781904FF231B040B401A4321
:104D00007B681A43BB6A13435B005B087B61FB68EB
:104D10001B685B68BA6A510D8022D2000A400749BD
:104D20000A43D2431A401100FB681B687A690A43A0
:104D30005A60C046BD4607B090BDC046FF63FF0342
:104D400080B582B000AF786039607B6841229B5C9F
:104D5000DBB2202B38D17B6840229B5C012B01D138
:104D6000022332E07B684022012199547B68412272
:104D7000242199547B681B681A687B681B68012191
:104D80008A431A607B681B681A687B681B68114934
:104D90000A401A607B681B6819687B681B683A6860
:104DA0000A431A607B681B681A687B681B680121CC
:104DB0000A431A607B684122202199547B68402273
:104DC00000219954002300E002231800BD4602B0E0
:104DD00080BDC046FFEFFFFF80B584B000AF7860B4
:104DE00039607B6841229B5CDBB2202B39D17B6828
:104DF00040229B5C012B01D1022333E07B684022DF
:104E0000012199547B684122242199547B681B68B5
:104E10001A687B681B6801218A431A607B681B68DB
:104E20001B68FB60FB68114A1340FB603B681B0278
:104E3000FA681343FB607B681B68FA681A607B683A
:104E40001B681A687B681B6801210A431A607B682B
:104E50004122202199547B6840220021995400234B
:104E600000E002231800BD4604B080BDFFF0FFFF44
:104E700080B588B000AF78607B68002B01D101233A
:104E800001E37B681B680122134000D18DE0C34B16
:104E90005B680C221340042B0ED0C04B5B680C22C5
:104EA0001340082B16D1BD4B5A6880235B021A4071
:104EB00080235B029A420DD1B84B1A6880239B0273
:104EC000134000D170E07B685B68002B00D06BE082
:104ED0000123D8E27B685B68012B07D1AF4B1A68CE
:104EE000AE4B802149020A431A602FE07B685B6861
:104EF000002B0CD1A94B1A68A84BA9490A401A608B
:104F0000A64B1A68A54BA7490A401A601EE07B68A9
:104F10005B68052B0ED1A14B1A68A04B8021C902FA
:104F20000A431A609D4B1A689C4B802149020A4330
:104F30001A600BE0994B1A68984B99490A401A601D
:104F4000964B1A68954B97490A401A607B685B68D4
:104F5000002B14D0FEF766FF0300BB6108E0FEF7EC
:104F600061FF0200BB69D31A642B01D903238AE2D3
:104F70008A4B1A6880239B021340F0D015E0FEF79D
:104F800051FF0300BB6108E0FEF74CFF0200BB6964
:104F9000D31A642B01D9032375E2804B1A6880234E
:104FA0009B021340F0D100E0C0467B681B680222E0
:104FB000134000D169E0794B5B680C2213400BD0A1
:104FC000764B5B680C221340082B1CD1734B5A683C
:104FD00080235B02134016D1704B1B6802221340E2
:104FE00005D07B68DB68012B01D001234BE26B4BC2
:104FF0001B68F822934319007B681B69DA00674B32
:105000000A431A6041E07B68DB68002B24D0634BC5
:105010001A68624B01210A431A60FEF703FF03007E
:10502000BB6108E0FEF7FEFE0200BB69D31A022B4B
:1050300001D9032327E2594B1B6802221340F1D008
:10504000564B1B68F822934319007B681B69DA00F2
:10505000524B0A431A6018E0504B1A684F4B01211B
:105060008A431A60FEF7DEFE0300BB6108E0FEF72C
:10507000D9FE0200BB69D31A022B01D9032302E235
:10508000464B1B6802221340F1D17B681B68082243
:10509000134036D07B68DB69002B19D03F4B5A6A2E
:1050A0003E4B01210A435A62FEF7BCFE0300BB617E
:1050B00008E0FEF7B7FE0200BB69D31A022B01D944
:1050C0000323E0E1354B5B6A02221340F1D018E084
:1050D000324B5A6A314B01218A435A62FEF7A2FED3
:1050E0000300BB6108E0FEF79DFE0200BB69D31A16
:1050F000022B01D90323C6E1284B5B6A022213402D
:10510000F1D17B681B680422134000D1B4E01F205A
:105110003B1800221A70214BDA6980235B0513408B
:1051200010D11E4BDA691D4B802149050A43DA6113
:105130001A4BDA6980235B051340FB60FB683B1860
:1051400001221A70184B1A6880235B0013401AD191
:10515000154B1A68144B802149000A431A60FEF768
:1051600061FE0300BB6108E0FEF75CFE0200BB6964
:10517000D31A642B01D9032385E10B4B1A688023D2
:105180005B001340F0D07B689B68012B0ED1034B72
:105190001A6A024B01210A431A6235E000100240EC
:1051A000FFFFFEFFFFFFFBFF007000407B689B6876
:1051B000002B0CD1B64B1A6AB54B01218A431A62F7
:1051C000B34B1A6AB24B04218A431A621CE07B6813
:1051D0009B68052B0CD1AE4B1A6AAD4B04210A43D8
:1051E0001A62AB4B1A6AAA4B01210A431A620BE0FE
:1051F000A74B1A6AA64B01218A431A62A44B1A6A6A
:10520000A34B04218A431A627B689B68002B14D04D
:10521000FEF708FE0300BB6109E0FEF703FE020093
:10522000BB69D31A9B4A934201D903232BE1984BC4
:105230001B6A02221340F0D013E0FEF7F3FD0300D7
:10524000BB6109E0FEF7EEFD0200BB69D31A914A8B
:10525000934201D9032316E18D4B1B6A02221340AE
:10526000F0D11F23FB181B78012B05D1884BDA697D
:10527000874B89490A40DA617B681B68102213401A
:1052800063D07B685B69012B2AD1814B5A6B804BC1
:1052900004210A435A637E4B5A6B7D4B01210A431A
:1052A0005A63FEF7BFFD0300BB6108E0FEF7BAFDDD
:1052B0000200BB69D31A022B01D90323E3E0744B2C
:1052C0005B6B02221340F1D0714B5B6BF82293436E
:1052D00019007B689B69DA006D4B0A435A6334E01E
:1052E0007B685B69053311D1694B5A6B684B0421AC
:1052F0008A435A63664B5B6BF822934319007B68C1
:105300009B69DA00624B0A435A631EE0604B5A6B9A
:105310005F4B04210A435A635D4B5A6B5C4B01217E
:105320008A435A63FEF77EFD0300BB6108E0FEF787
:1053300079FD0200BB69D31A022B01D90323A2E035
:10534000534B5B6B02221340F1D17B681B6A002B2D
:1053500000D197E04E4B5B680C221340082B00D124
:105360006BE07B681B6A022B4CD1494B1A68484B97
:105370004A490A401A60FEF755FD0300BB6108E088
:10538000FEF750FD0200BB69D31A022B01D903239B
:1053900079E03F4B1A6880239B041340F0D13C4BCB
:1053A000DB6A0F22934319007B68DA6A384B0A43A1
:1053B000DA62374B5B683A4A134019007B689A6A95
:1053C0007B685B6A1A43324B0A435A60304B1A6857
:1053D0002F4B802149040A431A60FEF723FD030086
:1053E000BB6108E0FEF71EFD0200BB69D31A022B69
:1053F00001D9032347E0264B1A6880239B041340FE
:10540000F0D03FE0224B1A68214B24490A401A6031
:10541000FEF708FD0300BB6108E0FEF703FD020094
:10542000BB69D31A022B01D903232CE0184B1A684D
:1054300080239B041340F0D124E07B681B6A012B7E
:1054400001D101231FE0124B5B687B61104BDB6ACB
:105450003B617A6980235B021A407B685B6A9A42EF
:105460000ED13B690F221A407B68DB6A9A4207D152
:105470007A69F0239B031A407B689B6A9A4201D0A9
:10548000012300E000231800BD4608B080BDC046DF
:105490000010024088130000FFFFFFEFFFFFFFFE38
:1054A000FFFFC2FF80B584B000AF786039607B68D1
:1054B000002B01D10123B3E05B4B1B680122134099
:1054C0003A689A4211D9584B1B680122934319003C
:1054D000554B3A680A431A60534B1B68012213402C
:1054E0003A689A4201D001239AE07B681B68022245
:1054F000134015D07B681B680422134006D04B4B29
:105500005A684A4BE021C9000A435A60474B5B681E
:10551000F022934319007B689A68444B0A435A600F
:105520007B681B680122134040D07B685B68012BBD
:1055300007D13E4B1A6880239B02134014D10123EC
:105540006EE07B685B68022B07D1384B1A688023BA
:105550009B04134008D1012362E0344B1B680222F4
:10556000134001D101235BE0304B5B68032293437E
:1055700019007B685A682D4B0A435A60FEF752FCAB
:105580000300FB6009E0FEF74DFC0200FB68D31A44
:10559000274A934201D9032342E0244B5B680C2243
:1055A0001A407B685B689B009A42ECD11E4B1B68DB
:1055B000012213403A689A4211D21B4B1B68012208
:1055C00093431900184B3A680A431A60164B1B683C
:1055D000012213403A689A4201D0012320E07B68FF
:1055E0001B680422134009D0104B5B68114A13401A
:1055F00019007B68DA680D4B0A435A6000F020F806
:1056000001000A4B5B681B090F2213400A4AD35C56
:105610000A00DA40094B1A600320FEF7BDFB0023A5
:105620001800BD4604B080BD0020024000100240BA
:1056300088130000FFF8FFFF209A000824000020D4
:1056400080B586B000AF0023FB600023BB60002361
:105650007B6100237B6000233B61204B5B68FB6028
:10566000FB680C221340042B02D0082B03D02CE043
:105670001B4B3B612CE0FB689B0C0F221340194A2B
:10568000D35C7B60154BDB6A0F221340164AD35C58
:10569000BB60FA6880235B02134009D0B9681048E8
:1056A000FAF73CFD03001A007B6853437B6109E075
:1056B00079680A005201521A93019B1ADB005B18A9
:1056C0001B027B617B693B6102E0054B3B61C0468D
:1056D0003B691800BD4606B080BDC04600100240C0
:1056E00000127A00389A0008489A000880B500AF86
:1056F000024B1B681800BD4680BDC0462400002038
:1057000080B500AFFFF7F2FF0100064B5B681B0A94
:1057100007221340044AD35CD9400B001800BD4651
:1057200080BDC04600100240309A000880B586B0A7
:1057300000AF786000233B610023FB607B681A6840
:1057400080235B02134000D18EE017203B1800221B
:105750001A70574BDA6980235B05134010D1544B04
:10576000DA69534B802149050A43DA61504BDA6903
:1057700080235B051340BB60BB683B1801221A7095
:105780004C4B1A6880235B0013401AD1494B1A68AE
:10579000484B802149000A431A60FEF743FB03008F
:1057A0003B6108E0FEF73EFB02003B69D31A642B25
:1057B00001D9032377E03F4B1A6880235B00134035
:1057C000F0D03B4B1A6AC0239B001340FB60FB6880
:1057D000002B34D07B685A68C0239B001340FA68C2
:1057E0009A422CD0324B1B6A334A1340FB60304B39
:1057F0001A6A2F4B802149020A431A622C4B1A6AFB
:105800002B4B2E490A401A62294BFA681A62FB6830
:105810000122134013D0FEF705FB03003B6109E0B2
:10582000FEF700FB02003B69D31A254A934201D9D7
:10583000032338E01E4B1B6A02221340F0D01C4B9E
:105840001B6A1D4A134019007B685A68184B0A43AB
:105850001A621723FB181B78012B05D1144BDA6948
:10586000134B18490A40DA617B681B680122134018
:1058700009D00F4B1B6B0322934319007B689A6876
:105880000B4B0A431A637B681B682022134009D024
:10589000074B1B6B1022934319007B68DA68044B9B
:1058A0000A431A6300231800BD4606B080BDC046F7
:1058B0000010024000700040FFFCFFFFFFFFFEFFF2
:1058C00088130000FFFFFFEF80B582B000AF786063
:1058D0007B68002B01D1012344E07B68DB6F002B48
:1058E00007D17B687822002199547B681800FEF765
:1058F00073F97B682422DA677B681B681A687B6807
:105900001B6801218A431A607B685B6A002B03D005
:105910007B68180000F0E0FA7B68180000F09CF942
:105920000300012B01D101231CE07B681B685A682E
:105930007B681B680D490A405A607B681B689A683F
:105940007B681B6808218A439A607B681B681A6819
:105950007B681B6801210A431A607B68180000F00D
:105960006FFB03001800BD4602B080BDFFF7FFFFCC
:1059700080B58AB002AFF860B9603B60BB1D1A8089
:10598000FB68DB6F202B00D08CE0BB68002B03D0C2
:10599000BB1D1B88002B01D1012384E0FB689A68A2
:1059A00080235B019A4209D1FB681B69002B05D15A
:1059B000BB680122134001D0012374E0FB688422FC
:1059C00000219950FB682122DA67FEF72BFA0300C9
:1059D0007B61FB68BA1D502112885A52FB68BA1DC0
:1059E000522112885A52FB689A6880235B019A42BE
:1059F00008D1FB681B69002B04D10023FB61BB6845
:105A0000BB6103E0BB68FB610023BB612FE07A69E7
:105A1000F8683B68009313000022802100F0B8FB77
:105A2000031E04D0FB682022DA6703233BE0FB69F6
:105A3000002B0BD1BB691A88FB681B68D205D20DFD
:105A400092B21A85BB690233BB6107E0FB691A7821
:105A5000FB681B681A85FB690133FB61FB685222F6
:105A60009B5A9BB2013B99B2FB6852229952FB6848
:105A700052229B5A9BB2002BC9D17A69F8683B68C5
:105A8000009313000022402100F082FB031E04D08B
:105A9000FB682022DA67032305E0FB682022DA672F
:105AA000002300E002231800BD4608B080BD0000BE
:105AB00080B58AB002AFF860B9603B60BB1D1A8048
:105AC000FB6880229B58202B00D0BDE0BB68002BD8
:105AD00003D0BB1D1B88002B01D10123B5E0FB685F
