:020000040800F2
:1000000000200020713C0008C53B0008CD3B0008E3
:1000100000000000000000000000000000000000E0
:10002000000000000000000000000000D53B0008B8
:100030000000000000000000DF3B0008E93B000872
:10004000C13C000800000000C13C0008C13C0008A1
:10005000C13C0008C13C0008C13C0008C13C00088C
:1000600000000000C13C0008C13C0008C13C000881
:10007000C13C0008C13C0008C13C00080000000071
:10008000C13C0008C13C000800000000C13C000861
:10009000C13C0008C13C0008C13C0008C13C00084C
:1000A000C13C0008C13C0008C13C0008C13C00083C
:1000B000C13C00080000000000000000000000003B
:1000C00010B5064C2378002B07D1054B002B02D02E
:1000D000044800E000BF0123237010BD8000002011
:1000E00000000000B86D0008044B10B5002B03D0D1
:1000F0000349044800E000BF10BDC04600000000F6
:1001000084000020B86D000803B47146490840001F
:100110004900095E49008E4403BC70470022430831
:100120008B4274D303098B425FD3030A8B4244D3BF
:10013000030B8B4228D3030C8B420DD3FF22090201
:1001400012BA030C8B4202D31212090265D0030BC0
:100150008B4219D300E0090AC30B8B4201D3CB03B6
:10016000C01A5241830B8B4201D38B03C01A5241F8
:10017000430B8B4201D34B03C01A5241030B8B42FA
:1001800001D30B03C01A5241C30A8B4201D3CB02E5
:10019000C01A5241830A8B4201D38B02C01A5241CA
:1001A000430A8B4201D34B02C01A5241030A8B42CD
:1001B00001D30B02C01A5241CDD2C3098B4201D3E5
:1001C000CB01C01A524183098B4201D38B01C01A63
:1001D000524143098B4201D34B01C01A52410309DA
:1001E0008B4201D30B01C01A5241C3088B4201D389
:1001F000CB00C01A524183088B4201D38B00C01A36
:10020000524143088B4201D34B00C01A5241411A5C
:1002100000D20146524110467047FFE701B5002069
:1002200000F006F802BDC0460029F7D076E7704717
:100230007047C046F0B54F464646D6464402C0B564
:1002400047000E1C640A3F0EC50F002F3CD0FF2F45
:1002500042D00023802299469A46E400D2041443F7
:100260007F3F73025B0A984673001B0EF60F002B4C
:100270001BD0FF2B13D042468021D200C90411436A
:10028000884600207F3B2900FF1A4B467140C9B2C7
:100290000F2B00D9B5E0744A9B00D3589F464346C4
:1002A000002B3FD1FF3F023303E04346002B2DD10B
:1002B000012329004A467140C9B21A430E2A38D890
:1002C0006A48920082589746002C13D1042399461D
:1002D000033B00279A46C4E7002C05D10823994622
:1002E000063BFF279A46BCE70C239946093BFF27AC
:1002F0009A46B6E7200000F0F1FC7627431F9C40A9
:1003000000237F4299469A463F1AAAE7404600F0EA
:10031000E5FC4246431F9A4076235B421B1A9046F7
:100320000020B0E703234A461A4391460320FC33DA
:10033000A9E70D00FF200022C005ED071043284368
:10034000E0BCBA46B146A846F0BD0D000020002230
:10035000F2E75346022BEDD0032B33D0A046012BFE
:1003600005D100200022E7E7350003287AD03B00C2
:100370007F33002B2DDD4246520707D00F22414626
:100380000A40042A02D004229446E0444246120164
:1003900005D54246364B1A403B0090468033FE2B33
:1003A000C8DC42469201520AD8B2C5E78022002535
:1003B000FF20D203C0E78022D203144202D043467A
:1003C000134249D08022D20322435202FF20520A14
:1003D000B2E70122D31A1B2BC3DC4246DA40434664
:1003E0009E37BB40591E8B411A43530704D00F233D
:1003F0001340042B00D00432530129D501200022E0
:100400009AE7424663015501AB4215D21B200022F8
:10041000013F01261C0052005B00002C01DB9D42C5
:1004200001D85B1B324301380028F3D1581E8341A9
:10043000134398460D009AE71A2001225B1BE8E758
:10044000023B5A4253415B4235000022D8B273E767
:1004500092010020520A6FE71A4352023500FF2032
:10046000520A69E74446ADE7F070000830710008B1
:10047000FFFFFFF770B5002813D0C317C5185D4004
:10048000C40F280000F02AFC9E2301001B1A962BA3
:100490000FDC082834D008398D406D026D0AD8B2BF
:1004A00002E0002400200025C0052843E407204383
:1004B00070BD992B16DC421F052800D095402A00FC
:1004C000114802406E0709D00F263540042D05D093
:1004D0000432550102D59F2302405B1A9201550A4E
:1004E000D8B2E1E70522121A2800D0400200080025
:1004F0001B3085402800451EA84102431500DEE759
:100500006D0296206D0ACFE7FFFFFFFBF0B557465F
:100510004E464546DE46E0B583B0009001910C039F
:100520004F00CE0F610A009C1D03640F0C4300991D
:1005300000920193C80059004B0D9946009A019B07
:100540006D0AD90F530F2B439A46009B7F0DDA009B
:1005500094464A46B046BA1A8E4200D1B0E0002A0C
:1005600000DC78E04946002900D1E9E0C9498F4222
:1005700000D195E10125382A16DC80215346090473
:100580000B439A461F2A00DDE7E1202155468B1ACE
:1005900061469D40D1400D43614699404B1E9941B3
:1005A0005346D3400D43E41A451BA84280414042C4
:1005B000241A230200D40FE16402640A002C00D143
:1005C00039E1200000F08AFB0300083B20212800CD
:1005D000CA1AD0409C4002009D4022439F4200DD49
:1005E00073E1D81B0130091A2C008D40C4406B1EEA
:1005F0009D411300C2408B402543002714001D433A
:100600006B0709D00F232B40042B05D02B1DAB42C9
:10061000AD416D4264191D00230200D42DE19D4AB5
:100620000137974200D1D3E046469B49ED0821406F
:100630004A072A437C054D022D0B640D24052C43EB
:10064000F60734431000210003B0F0BCBB46B246AD
:10065000A946A046F0BD002A00D184E04A46D21B3C
:10066000002F00D06DE12500054300D127E1561E83
:10067000012A00D13BE2874DAA4200D16AE201255E
:10068000382E12DC32001F2A00DDF8E1202625007A
:10069000B61A07005346B040D440B540D740461E76
:1006A000B0411B1B9A463D4305436246551BAC4572
:1006B0009241534652420E004F4688469C1A78E7B4
:1006C000002A00DC8EE04946002975D16146534678
:1006D000194300D1F6E0511E012A00D191E16D4D80
:1006E000AA4200D1DCE00125382914DC0A001F2AC7
:1006F00000DDA2E120215346891A8B401D0063468C
:10070000D3401D4363468B4019004B1E994153460D
:10071000D3400D43E4182D188542804140422418EF
:10072000230259D55B4B01379F4251D001215A4BCF
:100730006A081C4029400A43E507154364085FE73F
:1007400061465346194300D1BCE0511E012A00D135
:1007500064E1504DAA4200D16AE10125382900DD4B
:1007600022E70A000EE74D4A7D1C154200D0D0E07A
:1007700025006246534605431A43002F00D037E157
:10078000002D00D1A8E1002A00D16AE16346C51A14
:100790005346E21AA8429B415B42D31A1A0200D484
:1007A00003E263461D1AAC459241534652421C1B5C
:1007B0000E008846A41A23E736498F4270D00125DF
:1007C000382AA8DC8021534609040B439A468EE759
:1007D0003C000025002231E707232B40002B00D0EE
:1007E00010E793E0002A74D04A46D21B002F00D1B4
:1007F000C7E02849894500D185E10125382A12DC66
:10080000802109040C431F2A00DDABE120212500D3
:10081000891A070088408D40D740411E8841D44046
:100820003D430543A24465446545924152425244CA
:1008300014004F4674E7280000F050FA0300183304
:100840001F2B00DCC2E62A00083882409F4200DDF0
:10085000A9E0DB1B581C1F2800DCACE115001F3B86
:10086000DD40202805D040231B1A9A40531E9A4190
:100870001543072300272B40B0E7ED08054B62071F
:100880002A43E4089F420FD02403250B7C05640D06
:10089000D4E6C046FF070000FFFF7FFFFE07000011
:1008A000C00862070243E4081300234300D186E135
:1008B00080252D0325432D03C34C2D0BBEE660463A
:1008C00054460E001700C508D8E7C04CFF1A144064
:1008D00096E6BF4A791C11426BD122000243002FD9
:1008E00000D0DBE0002A00D12DE1624653461A43D6
:1008F00000D1B6E06346C518854280415444404269
:100900002418230202D50F00B04B1C403A002800E7
:10091000D8E76246851AA842924153465242914610
:10092000E31A1A004B46D21A130091461A0254D405
:100930004A464C462A4300D040E6002600240025C3
:100940007CE6A14DA94500D190E00125382A00DDC3
:10095000ABE680252D042C4395E611005546203941
:10096000CD40A946202A06D0402153468A1A9340FA
:1009700062461A43944665466B1E9D414B461D4395
:1009800012E62100014300D1C4E0511E012A00D12A
:10099000FBE08D4DAA4200D1B5E00125382900DDEC
:1009A00041E70A002FE7894CFF1A14406207E40868
:1009B0006AE7854A914200D1E3E06346C218824269
:1009C00080412300404253441B18DD075C08072385
:1009D000520815430F002B4000E763461D1AAC4533
:1009E0009241534652421C1B0E008846A41AE5E56C
:1009F000002D00D091E0002A38D180240026240365
:100A000056E76346C5188542804154444042241845
:100A10000127230200D4DFE6022787E66346C51AD2
:100A2000A842804153464042E41A0127241AC0E5F7
:100A30006207C0080243E40836E711005346203934
:100A4000CB409946202A06D0402153468A1A93402B
:100A500062461A43944665466B1E9D414B461D43B4
:100A600059E66207C0080243E4080DE753465A07F7
:100A70006346D80853460E000243DC0814E715000D
:100A80002600203DEE40202A03D04025AA1A94409B
:100A90002043421E90410500354306E6002A7CD0E3
:100AA00062465346C0081A4300D1FAE66207104373
:100AB0008022E4081203144208D0D908114205D15B
:100AC0006346D80853460C005B071843420FC0002A
:100AD000C00852070243E7E6002A00D12DE763462B
:100AE000D80853465A070E000243DC08CCE663469A
:100AF0001D1AAC459241534652421C1B0E008846BB
:100B0000A41A013755E56346D90853465A070A43E4
:100B1000DC08C9E660465446D4E6C008002A00D185
:100B2000BFE6620710438022E40812031442CDD0CE
:100B3000DD081542CAD16346D80853465B070E004C
:100B40002C001843C2E76346D90853465A070A43A4
:100B5000DC0899E66346D80853465A070E0002435C
:100B6000DC08A1E6110027002039CF40202A03D05D
:100B700040218A1A94402043421E904105003D4383
:100B800051E60C000025002258E560446045924182
:100B9000544452420500A4183AE753465A076346A4
:100BA000D90853460A43DC087EE61A001C002A4393
:100BB00000D0ABE6C1E620210025091A19E5002284
:100BC0000025014C3AE5C046FF070000FFFF7FFF0C
:100BD000FE0700000B00020070B5164D0C0382B03A
:100BE0004900002000920193240B490DDE0FA94219
:100BF00004DD1148814203DD104BF01802B070BDD6
:100C00008020400320430E4C641A1F2C08DD0D4B3E
:100C10005B1AD84003005842002EEFD11800EDE7D0
:100C2000094B009A9C46030061448B40E240134309
:100C3000F1E7C046FE0300001D040000FFFFFF7F38
:100C40003304000013040000EDFBFFFF70B5420207
:100C50004300C40FFE201B0E591C550A08420CD03D
:100C6000E02189008C466D07120B63441B0513437A
:100C7000E40723432800190070BD002B14D1002D78
:100C80001BD0280000F02AF80A281CDC0B232A00BD
:100C90001B1ADA40030015339D400E4B12031B1A3A
:100CA0005B05120B5B0DE1E7002D09D0130B8022D1
:100CB00012031A436D07084BD8E700230022D5E73B
:100CC0000022054BD2E703002A000B3B9A40002587
:100CD000E3E7C04689030000FF0700001C21012351
:100CE0001B04984201D3000C10391B0A984201D30F
:100CF000000A08391B09984201D30009043902A2ED
:100D0000105C40187047C046040302020101010153
:100D10000000000000000000F0B585B000AF040046
:100D20000800BA6019000F257B19221C1A700E24C6
:100D30003B19021C1A700D26BB190A1C1A70634657
:100D40007B607B191B789BB202339AB23B191B78EC
:100D50009BB21900100002F075FBBB191B78012B28
:100D600006D12349BB680122180002F005FC3AE0D5
:100D70000D23FB181B78022B06D11E49BB680122EC
:100D8000180002F0F9FB2EE00D23FB181B78032B53
:100D900006D11949BB680122180002F0EDFB22E0E0
:100DA0000D23FB181B780A2B06D11149BB680022C2
:100DB000180002F0E1FB16E00D23FB181B78142B42
:100DC00006D10C49BB680022180002F0D5FB0AE0EE
:100DD0000D23FB181B781E2B05D10749BB68002289
:100DE000180002F0C9FBC046BD4605B0F0BDC046C4
:100DF00000000020080000201000002080B584B012
:100E000000AF1823FB187B6002F05CFF02F01AF8B9
:100E100002F0EEF802F07CF802F0BAF880235B00F2
:100E2000CB480122190003F016FA02F07BF9C94AF7
:100E30003B1D9C46022300212320FFF76DFFC64A7D
:100E40003B1D9C46022313212320FFF765FFC34A65
:100E50003B1D9C46022326210920FFF75DFF02F07F
:100E600025FAFA235B00180002F090FF02F039FD2A
:100E700002F082FF0300FB6080235B01B44A19008B
:100E8000100003F0CBF903001A000B203B18511E91
:100E90008A411A703B181B7801225340DBB2002BA9
:100EA00016D0AF4B1B7801225340DBB2002B0FD082
:100EB000AC4B1B68FA68D31A322B09D9A84B012214
:100EC0001A70A94B00221A70A64BFA681A6071E2D8
:100ED0000B23FB181B7801225340DBB2002B00D1FF
:100EE000DEE1A14B1B7801225340DBB2002B00D185
:100EF000D6E19C4B1B68FA68D21AFA235B009A422F
:100F000000D8CDE1984B01221A70984B1B78002B2A
:100F100006D1974B1B78072B02D1964B06221A70ED
:100F2000924B1B78002B08D1904B01221A70904BEA
:100F300001221A7002F0D5FC3BE28C4B1B78012B8E
:100F40000CD18B4B1B78002B08D1884B00221A70D8
:100F5000874B00221A7002F0C4FCA0E1834B1B787F
:100F6000012B0CD1824B1B78012B08D17F4B022225
:100F70001A707F4B02221A7002F0B3FC8FE17B4B98
:100F80001B78012B0CD17A4B1B78022B08D1774BA5
:100F900003221A70764B01221A7002F0A2FC7EE145
:100FA000724B1B78012B0CD1714B1B78032B08D192
:100FB0006E4B04221A706E4B00221A7002F091FCE4
:100FC0006DE16A4B1B78022B0FD1694B1B78002B0C
:100FD0000BD1664B01221A70654B01221A70654BCA
:100FE00003221A7002F07DFC59E1604B1B78022B42
:100FF00004D15F4B1B78012B00D150E15B4B1B7878
:10100000022B10D15A4B1B78022B0CD15A4A3B1D94
:101010009C4601230021002000F088FA3B1D9C46DD
:1010200000F05EFF3BE1514B1B78022B0CD1504B83
:101030001B78032B08D14D4B14221A704C4B012204
:101040001A7002F04EFC2AE1484B1B78022B10D19B
:10105000474B1B78042B0CD1474A3B1D9C46012370
:101060001621002000F062FA3B1D9C4600F0A8FF0C
:1010700015E13E4B1B78022B10D13D4B1B78052B05
:101080000CD13D4A3B1D9C4601232021002000F04D
:101090004DFA3B1D9C4601F005F800E1334B1B78EF
:1010A000022B10D1324B1B78062B0CD1324A3B1D40
:1010B0009C4601232A21002000F038FA3B1D9C4663
:1010C00001F060F8EBE0294B1B78142B08D1284B7A
:1010D0001B78052B04D13B1D9C4601F0CFF9DEE0C7
:1010E000224B1B78142B0CD1214B1B78002B08D1E1
:1010F0001E4B02221A701E4B03221A7002F0F1FBE3
:10110000CDE01A4B1B78142B10D1194B1B78042BF4
:101110000CD8164B15221A70154B1B78013B174A39
:10112000D35C303BDAB2164B1A70B8E00F4B1B7829
:10113000152B27D10D4B14221A70114B1A780C4B1A
:101140001B78013B3032D1B20C4AD15431E1C04658
:1011500000040048D06D0008D86D0008E06D00085C
:10116000780100207C01002079010020800100200E
:101170008101002018000020EC6D00081C000020F8
:1011800082010020A84B1B78032B0CD1A74B1B78A6
:10119000002B08D1A44B01221A70A44B02221A7012
:1011A00002F09FFB7BE0A04B1B78032B10D19F4BE1
:1011B0001B78012B0CD19E4A3B1D9C46012300212C
:1011C000002000F0B3F93B1D9C4601F07DFA66E07B
:1011D000954B1B78032B10D1944B1B78022B0CD111
:1011E000934A3B1D9C4601230A21002000F09EF9F2
:1011F0003B1D9C4601F0EEFA51E08B4B1B78032B14
:1012000010D18A4B1B78032B0CD1894A3B1D9C467D
:1012100001231421002000F089F93B1D9C4601F0B8
:101220004FFB3CE0804B1B78032B10D17F4B1B788E
:10123000042B0CD17E4A3B1D9C4601231E2100201D
:1012400000F074F93B1D9C4601F0B0FB27E0764BA3
:101250001B78032B10D1754B1B78052B0CD1744ACE
:101260003B1D9C4601232821002000F05FF93B1D17
:101270009C4601F00FFC12E06B4B1B78042B00D056
:1012800097E06A4B1B78002B00D092E0664B01225E
:101290001A70664B03221A7002F023FB89E088E083
:1012A0000B23FB181B78002B00D183E0614B1B78CC
:1012B000002B00D17EE0604B1B68FA68D31A322BFA
:1012C00000D877E05B4B00221A705B4BFA681A601B
:1012D0005A4B1B7801225340DBB2002B00D169E04E
:1012E000514B1B78002B0CD1504B1B780133DAB2D9
:1012F0004E4B1A704D4B1B78072B02D94B4B0022DB
:101300001A70494B1B78012B0CD1484B1B780133C9
:10131000DAB2464B1A70454B1B78032B02D9434B6C
:1013200000221A70404B1B78022B0ED13F4B1B78CA
:101330000133DAB23D4B1A703C4B1A78404B1B78A4
:101340009A4202D9394B00221A70374B1B78032B73
:101350000CD1364B1B780133DAB2344B1A70334B55
:101360001B78052B02D9314B00221A702E4B1B78AB
:10137000142B0CD12D4B1B780133DAB22B4B1A7086
:101380002A4B1B78052B02D9284B00221A70264BBA
:101390001B78152B0ED12B4B1B780133DAB2294B5E
:1013A0001A70284B1B78092B04D9264B00221A707F
:1013B00000E0C0461C4B1B78002B03D13B1D9C4614
:1013C00000F0DEF8184B1B78012B03D13B1D9C4627
:1013D00000F048FB144B1B78022B03D13B1D9C46AD
:1013E00000F0B0FB104B1B78142B03D13B1D9C4627
:1013F00000F03AFF0C4B1B78152B03D13B1D9C468C
:1014000000F0E6FF084B1B78032B03D13B1D9C46E5
:1014100001F0D2F8044B1B78042B00D028E53B1DCB
:101420009C4601F0ABFB23E58001002081010020F8
:10143000EC6D0008780100207C010020790100207B
:101440001800002082010020B0B582B000AF050076
:101450000C0010001900FB1D2A1C1A70BB1D221C59
:101460001A707B1D021C1A703B1D0A1C1A70634601
:101470003B60FB1D1B789BB202339AB2BB1D1B78ED
:101480009BB21900100001F0DDFF3B1D1B78012B02
:1014900007D123497B1D1B780122180001F0EAFFC8
:1014A0003AE03B1D1B78022B07D11E497B1D1B78A0
:1014B0000122180001F0DEFF2EE03B1D1B78032BFC
:1014C00007D119497B1D1B780122180001F0D2FFBA
:1014D00022E03B1D1B780A2B07D111497B1D1B788D
:1014E0000022180001F0C6FF16E03B1D1B78142BEC
:1014F00007D10C497B1D1B780022180001F0BAFFB0
:101500000AE03B1D1B781E2B06D107497B1D1B786B
:101510000022180001F0AEFFC046BD4602B0B0BDCB
:10152000000000200800002010000020F0B585B069
:1015300000AF04000800BA6019000F26BB19221C76
:101540001A700E23FB18021C1A700D203B180A1C7F
:101550001A706346614679603A181578BC680E22A5
:10156000BA181178BA1910789C462B002200FFF7A0
:10157000D3FB01F09BFEC046BD4605B0F0BD0000A8
:10158000F0B5ADB000AF644663467B6002F0F4FB9B
:101590000200D14B1B68D21AFA239B009A4200D852
:1015A0004FE280239B01CD480022190002F053FE38
:1015B000AC26BB19CA4A1A8008257B1900221A607A
:1015C000043345220021180004F01CFF01F0E0FC68
:1015D000B919C4483223022204F074F97919C148B8
:1015E0006423492204F00EFA7B1948229B5C0D2BE0
:1015F00005D07B1949222021180004F003FF02F0D6
:10160000BBFB0200B44B1A60A4203B1800221A60F6
:1016100000229A809C23FB1800221A6000229A80E4
:1016200008257B1919002B3106003B1805221800EC
:1016300004F0F0FE7B19190031319C23FB180522C0
:10164000180004F0E7FEA84AA44601230021002068
:10165000FFF762FBBA19A446012300211520FFF70A
:101660005BFB9C23FA18A446012300215B20FFF7B3
:1016700053FB94203B1800221A6000221A718C231D
:10168000FB1800221A6000221A717B1919003D31E3
:1016900006003B180422180004F0BCFE7B19190058
:1016A00041318C23FB180422180004F0B3FE8F4A4A
:1016B000A44602230D210020FFF72EFBBA19A446F1
:1016C00002230D211C20FFF727FB8C23FA18A446C8
:1016D00002230D214E20FFF71FFB84203B18002220
:1016E0001A6000229A807B193733190005007B1994
:1016F0000522180004F08EFE7D4AA4460123212114
:101700000020FFF709FB7A19A4460123212131208B
:10171000FFF702FB7026BB1900221A600433102267
:101720000021180004F06EFEBB19142220211800BD
:1017300004F068FEBA19A44601232B210020FFF70C
:10174000EBFA7B19DB78302B0AD17B191B79302B14
:1017500006D1BB19674A1188198092789A70F7E010
:101760008422BB18DB78312B0DD1BB181B79302BB1
:1017700009D17023FB18604A03CA03C3118819807A
:1017800092789A70E4E08422BB18DB78312B0DD17B
:10179000BB181B79312B09D17023FB18574A23CA78
:1017A00023C31188198092789A70D1E08422BB18E3
:1017B000DB78322B0FD1BB181B79312B0BD1702367
:1017C000FB184F4A23CA23C3116819609188998076
:1017D00092799A71BCE08422BB18DB78322B0DD150
:1017E000BB181B79322B09D17023FB18454A23CA39
:1017F00023C31168196012791A71A9E08422BB18F9
:10180000DB78322B0BD1BB181B79342B07D170231B
:10181000FB183D4A23CA23C312781A7098E0842229
:10182000BB18DB78332B0DD1BB181B79302B09D1BA
:101830007023FB18354A23CA23C311881980927874
:101840009A7085E08422BB18DB78332B0BD1BB1850
:101850001B79312B07D17023FB182D4A03CA03C310
:1018600012781A7074E08422BB18DB78342B0DD107
:10187000BB181B79302B09D17023FB18254A23CACA
:1018800023C31168196092889A8061E08422BB1892
:10189000DB78352B0DD1BB181B79302B09D1702388
:1018A000FB181D4A23CA23C31168196092889A80C5
:1018B0004EE08422BB18DB78352B31D1BB181B7965
:1018C000312B2DD17023FB18144A23CA23C311884E
:1018D000198092789A703BE084010020000800484B
:1018E000460D0000F0000020F06D0008006E0008BA
:1018F000046E00080C6E0008106E00081C6E0008D4
:101900002C6E0008406E0008546E0008646E0008DB
:10191000746E0008806E0008946E0008A86E0008BF
:101920008422BB18DB78392B0DD1BB181B79302BE7
:1019300009D17023FB18454A23CA23C31188198093
:1019400092789A7004E07023FB18414A03CA03C3DB
:101950007023FA18A44601232B210020FFF7DCF99D
:1019600064257B1900221A60043306220021180026
:1019700004F048FD8423FB189B78312B08D17B1998
:10198000344A116819609188998092799A7113E0AC
:101990008423FB189B78302B09D16423FB182E4A33
:1019A000116819609188998092799A7104E0642392
:1019B000FB18274A03CA03C36423FA18A446012369
:1019C00021215420FFF7A8F95C203B1800221A605F
:1019D00000229A805426BB1900221A6000229A80A5
:1019E0000823FB181900133105003B1805221800C5
:1019F00004F010FD0823FB180D331900BB19052254
:101A0000180004F007FD154AA446012335210020E3
:101A1000FFF782F97A19A446012335211520FFF733
:101A20007BF9BA19A446012335215B20FFF774F92D
:101A300080239B010A480122190002F00CFC01F0EE
:101A400035FCC046BD462DB0F0BDC046B86E00089E
:101A5000C86E0008D06E0008D86E0008E06E00085E
:101A60000008004890B583B000AF644663467B60D1
:101A700080239B012C480022190002F0ECFB2B4A2A
:101A8000A446012300210020FFF746F9284AA44676
:101A900001230A210020FFF73FF9264AA44601232B
:101AA00014210020FFF738F9234AA44601233221EC
:101AB0000020FFF731F9214B1B78012B06D1204A7A
:101AC000A446012300210020FFF726F91B4B1B78B9
:101AD000022B06D11A4AA44601230A210020FFF74F
:101AE0001BF9164B1B78032B06D1154AA44601237C
:101AF00014210020FFF710F9104B1B78002B06D1A2
:101B00000F4AA446012332210020FFF705F901F016
:101B1000CDFB80239B0104480122190002F09BFBAE
:101B2000C046BD4603B090BD00080048F06E0008F6
:101B3000006F00080C6F0008186F0008810100207A
:101B4000206F0008F0B593B002AF644663467B6037
:101B5000CD4AA446012300213920FFF7DDF8CB4B05
:101B60001B78012B06D1CA4AA44601230021392043
:101B7000FFF7D2F8C74AA446012300210020FFF74F
:101B8000CBF8C24B1B78022B06D1C14AA4460123D5
:101B900000210020FFF7C0F8BF4AA44601230A2114
:101BA0000020FFF7B9F8B94B1B78032B06D1B84AD0
:101BB000A44601230A210020FFF7AEF8B74AA44645
:101BC000012316210020FFF7A7F8B04B1B78042B48
:101BD00006D1AF4AA446012316210020FFF79CF846
:101BE000AF4AA446012320210020FFF795F8A74B18
:101BF0001B78052B06D1A64AA446012320210020EC
:101C0000FFF78AF8A74AA44601232A210020FFF7FC
:101C100083F89E4B1B78062B06D19D4AA4460123D0
:101C20002A210020FFF778F89F4AA4460123352196
:101C30000020FFF771F8954B1B78002B06D1944AD2
:101C4000A446012335210020FFF766F802F094F83E
:101C50000200964B1B68D31A954A934200D8E4E0E1
:101C600080239B0193480022190002F0F4FA01F04E
:101C70008FF93826BB19904A1168196012791A71C8
:101C800024257B1900221A6004330F22002118003A
:101C900004F0B8FBB91989483223052203F012FE7B
:101CA000791986483223122203F0ACFE02F064F860
:101CB00002007E4B1A607B195B7C0D2B05D07B19D3
:101CC00013222021180004F09DFB80239B017948FA
:101CD0000122190002F0BFFA242579191C26BB192C
:101CE0000522180004F096FB754AA4460123212121
:101CF0004720FFF711F8BA19A446012321215C20DF
:101D0000FFF70AF87B19991D1423FB180522180008
:101D100004F080FB6B4AA44601232B213920FEF7F7
:101D2000FBFF1423FA18A44601232B215C20FEF7A5
:101D3000F3FF7B190C3319000C257B1905221800C1
:101D400004F068FB604AA446012335213920FEF7E0
:101D5000E3FF7A19A446012335215C20FEF7DCFF5E
:101D6000BB19180004F092FA02003E257B191A8074
:101D70007B1900229B5E1800FEF77CFB031C534975
:101D8000181CFEF757FA031C181CFEF75FFF020031
:101D90000B001000190004F0C7FF02000B007D19B2
:101DA00010001900FEF716FF03002B80BB191B78EB
:101DB0002D2B05D13E257B19012252421A8015E0B8
:101DC0001C23FB181B78202B05D13E23FB180B226C
:101DD00052421A800AE03E217B1800229A5EFA23C2
:101DE0009B009A4202DB7B18394A1A80394AA44682
:101DF00002230C215C20FEF78FFF3E23FB180022FC
:101E00009A5E354908257B19180004F0DBFA334A3D
:101E1000A446012314213920FEF77EFF7A19A44637
:101E200002230C215C20FEF777FF0123009314238B
:101E300037221421002001F0C5FB01230093342335
:101E400037223421002001F0BDFB012300930A2337
:101E500080220A21372001F0B5FB012300934023A3
:101E600037220021372001F0ADFB012300931E2310
:101E700080221E21372001F0A5FB01F017FAC04691
:101E8000BD4611B0F0BDC046246F0008810100209E
:101E9000206F00082C6F0008346F00083C6F0008AA
:101EA000446F00084C6F0008186F00088401002080
:101EB0004C04000000080048786F0008F000002083
:101EC000546F0008586F0008606F0008CDCC8C403C
:101ED000E7030000686F00086C6F0008706F00086F
:101EE000F0B589B000AF644663467B60C04601F040
:101EF00043FF02002B4B1B68D31A2B4A9342F6D99F
:101F000080239B0129480022190002F0A4F9182619
:101F1000BB19274A1168196092889A800C257B1991
:101F200000221A60043306220021180004F06AFA25
:101F300001F02EF8B9191F483223062203F0C2FC23
:101F400079191C4832230A2203F05CFD01F014FFCA
:101F50000200144B1A607B195B794F2B0BD17B1954
:101F60009B794B2B07D1144AA4460123002107205B
:101F7000FFF7DCFA06E0114AA446012300210720FE
:101F8000FFF7D4FA80239B0108480122190002F0D0
:101F900062F9FA239B00180001F0F8FEC046BD4626
:101FA00009B0F0BD840100204B0400000008004887
:101FB000906F0008F0000020806F0008886F000814
:101FC000F0B589B000AF644663467B60C04601F05F
:101FD000D3FE02002C4B1B68D31A2C4A9342F6D92D
:101FE00080239B012A480022190002F034F91826A8
:101FF000BB19284A116819609188998092799A7161
:102000000C257B1900221A600433062200211800D7
:1020100004F0F8F900F0BCFFB9191F483223072279
:1020200003F050FC79191C4832230A2203F0EAFC21
:1020300001F0A2FE0200144B1A607B199B794F2B12
:102040000BD17B19DB794B2B07D1144AA446012312
:1020500016210720FFF76AFA06E0114AA446012379
:1020600016210720FFF762FA80239B01084801220E
:10207000190002F0F0F8FA239B00180001F086FE28
:10208000C046BD4609B0F0BD840100204B040000ED
:1020900000080048986F0008F0000020806F0008DA
:1020A000886F0008F0B589B000AF644663467B6076
:1020B000C04601F061FE02002B4B1B68D31A2B4A6D
:1020C0009342F6D980239B0129480022190002F08F
:1020D000C2F81826BB19274A1168196092889A809D
:1020E0000C257B1900221A600433062200211800F7
:1020F00004F088F900F04CFFB9191F48322306227A
:1021000003F0E0FB79191C4832230A2203F07AFC21
:1021100001F032FE0200144B1A607B195B794F2BE1
:102120000BD17B199B794B2B07D1144AA446012371
:1021300020210720FFF7FAF906E0114AA4460123FF
:1021400020210720FFF7F2F980239B010848012294
:10215000190002F080F8FA239B00180001F016FE27
:10216000C046BD4609B0F0BD840100204B0400000C
:1021700000080048A06F0008F0000020806F0008F1
:10218000886F0008F0B589B000AF644663467B6095
:10219000C04601F0F1FD02002C4B1B68D31A2C4AFB
:1021A0009342F6D980239B012A480022190002F0AD
:1021B00052F81826BB19284A11681960918899802D
:1021C00092799A710C257B1900221A600433062239
:1021D0000021180004F016F900F0DAFEB9191F48C2
:1021E0003223072203F06EFB79191C4832230A229E
:1021F00003F008FC01F0C0FD0200144B1A607B19CB
:102200009B794F2B0BD17B19DB794B2B07D1144AD0
:10221000A44601232A210720FFF788F906E0114A86
:10222000A44601232A210720FFF780F980239B0180
:1022300008480122190002F00EF8FA239B0018004A
:1022400001F0A4FDC046BD4609B0F0BD84010020E8
:102250004B04000000080048A86F0008F0000020B0
:10226000806F0008886F0008B0B584B000AF644686
:1022700063467B600F257B1916221A704E4AA446CE
:10228000022300210020FEF747FD4C4B1B78012B59
:1022900009D14B4B1A787B191978A44614232320B3
:1022A000FFF7D2F809E0464B1A780F23FB1819788C
:1022B000A44602232320FFF7C7F8404B1B78022BCC
:1022C0000AD13F4B5A780F23FB181978A4461423E0
:1022D0002E20FFF7B9F809E0394B5A780F23FB1885
:1022E0001978A44602232E20FFF7AEF8354A0F25B1
:1022F0007B191978A44602233920FEF70DFD2F4BD8
:102300001B78032B09D12E4B9A787B191978A44698
:1023100014234420FFF798F809E0294B9A780F23FB
:10232000FB181978A44602234420FFF78DF8234BAD
:102330001B78042B0AD1224BDA780F23FB1819786B
:10234000A44614234F20FFF77FF809E01C4BDA78EE
:102350000F23FB181978A44602234F20FFF774F8C7
:10236000164B1B78002B07D1174AA44614232D21A6
:102370000020FEF7D1FC06E0134AA44602232D21DB
:102380000020FEF7C9FC0D4B1B78052B07D10F4A27
:10239000A44614232D216920FEF7BEFC06E00B4A5B
:1023A000A44602232D216920FEF7B6FC00F07EFF33
:1023B000C046BD4604B0B0BDB06F0008810100202A
:1023C0001C000020BC6F0008C06F00080C6E0008E5
:1023D00090B585B000AF644663467B60254AA4464D
:1023E000022300210020FEF797FC0F23FB18002298
:1023F0001A7034E0204B1B780F217A1812789A4219
:1024000013D17B181B781A1C9200D2189218D3187B
:10241000DBB20433D8B27B181B783033DAB2A4466F
:1024200014230021FFF710F813E00F217B181B780D
:102430001A1C9200D2189218D318DBB20433D8B207
:102440007B181B783033DAB2A44602230021FEF752
:10245000FBFF0F217B181A787B1801321A700F23AB
:10246000FB181B78092BC5D900F020FFC046BD46DC
:1024700005B090BDC86F000882010020F0B58BB098
:1024800000AF644663467B6001F02BFAC04601F062
:1024900073FC02003D4B1B68D31A3D4A9342F6D9A8
:1024A00080239B013B480022190001F0D4FE1C252B
:1024B0007B1900221A60043306220021180003F061
:1024C000A1FF354A35497B19180003F07BFF7A19C3
:1024D000A446022316210B20FFF728F82E4A304984
:1024E0007B19180003F06EFFC8239B00180001F051
:1024F0004DFC0C26BB1900221A6004330B2200216C
:10250000180003F07FFF00F043FD791925483223BE
:102510000A2203F0D7F9B919224832230F2203F017
:1025200071FA01F029FC0200184B1A60BB199B7A62
:102530004F2B11D1BB19DB7A4B2B0DD11A4AA44674
:10254000022316210A20FEF7F1FF184B02221A700F
:10255000174B03221A7006E0164AA44602231621DE
:102560000A20FEF7E3FF80239B010A48012219009D
:1025700001F071FEFA239B00180001F007FC01F046
:10258000B0F9C046BD460BB0F0BDC0468401002086
:102590004B040000000800481C000020D86F000811
:1025A000E46F0008F0000020F06F000880010020B8
:1025B00081010020FC6F000890B583B000AF644635
:1025C00063467B60384AA446012332210020FEF78F
:1025D000A3FB364B1B78002B06D1354AA4460123BA
:1025E00032210020FEF798FB324AA4460123002145
:1025F0000020FEF791FB2D4B1B78012B06D12C4AB6
:10260000A446012300210020FEF786FB2A4AA446A7
:1026100001230A210020FEF77FFB244B1B78022BAD
:1026200006D1234AA44601230A210020FEF774FBA9
:10263000224AA446012314210020FEF76DFB1B4B08
:102640001B78032B06D11A4AA4460123142100202B
:10265000FEF762FB1A4AA44601231E210020FEF762
:102660005BFB124B1B78042B06D1114AA4460123B5
:102670001E210020FEF750FB124AA4460123282108
:102680000020FEF749FB094B1B78052B06D1084AB1
:10269000A446012328210020FEF73EFB00F006FEA1
:1026A000C046BD4603B090BD186F000881010020F0
:1026B000206F0008087000081470000820700008DF
:1026C0002C70000838700008F0B589B000AF64467F
:1026D00063467B60C04601F04FFB0200344B1B6831
:1026E000D31A344A9342F6D980239B013248002200
:1026F000190001F0B0FD314AA44601230021072052
:10270000FEF70AFB1826BB192D4A1168196091883B
:10271000998092799A710C257B1900221A600433F2
:1027200006220021180003F06DFE00F031FCB919FB
:1027300024483223072203F0C5F8791921483223AF
:102740000A2203F05FF901F017FB0200184B1A6030
:102750007B191B784F2B07D11B4AA446012300216C
:102760000720FEF7E3FE13E00C23FB181B78552B24
:1027700007D1164AA446012300210720FEF7D6FE02
:1027800006E0134AA446012300210720FEF7CEFEEF
:1027900080239B0108480122190001F05CFDFA2307
:1027A0009B00180001F0F2FAC046BD4609B0F0BD2A
:1027B000840100204B040000000800484470000819
:1027C00064700008F0000020507000085470000889
:1027D0005C700008F0B589B000AF644663467B606A
:1027E000C04601F0C9FA02002D4B1B68D31A2D4ACE
:1027F0009342F6D980239B012B480022190001F057
:102800002AFD2A4AA44601230A210720FEF784FA5A
:102810001426BB19264A03CA03C312881A80082546
:102820007B1900221A60043306220021180003F0ED
:10283000E9FD00F0ADFBB9191E4832230A2203F06E
:1028400041F879191B4832230A2203F0DBF801F022
:1028500093FA0200124B1A607B191B784F2B07D199
:10286000154AA44601230A210720FEF75FFE06E071
:10287000124AA44601230A210720FEF757FE8023AF
:102880009B0109480122190001F0E5FCFA239B0095
:10289000180001F07BFAC046BD4609B0F0BDC04645
:1028A000840100204B040000000800484470000828
:1028B0006C700008F00000200C6E00085C700008CE
:1028C000F0B589B000AF644663467B60C04601F056
:1028D00053FA02002D4B1B68D31A2D4A9342F6D9A6
:1028E00080239B012B480022190001F0B4FC2A4AE6
:1028F000A446012314210720FEF70EFA1826BB195F
:10290000264A1168196092889A800C257B1900224A
:102910001A60043306220021180003F073FD00F052
:1029200037FBB9191E483223062202F0CBFF791972
:102930001B4832230A2203F065F801F01DFA020059
:10294000124B1A607B191B78552B07D1154AA446E8
:10295000012314210720FEF7E9FD06E0124AA446F0
:10296000012314210720FEF7E1FD80239B01094884
:102970000122190001F06FFCFA239B00180001F0FE
:1029800005FAC046BD4609B0F0BDC046840100202E
:102990004B040000000800484470000878700008EC
:1029A000F00000200C6E00085C700008F0B589B0E3
:1029B00000AF644663467B60C04601F0DDF902006B
:1029C0002C4B1B68D31A2C4A9342F6D92B4AA446A7
:1029D00001231E210720FEF79FF910257B190022F5
:1029E0001A6004330B220021180003F00BFD802332
:1029F0009B0123480022190001F02DFC0826BB1979
:102A0000204A03CA03C300F0C3FAB9191E4832238F
:102A1000082202F057FF79191B4832230F2202F0D7
:102A2000F1FF01F0A9F90200124B1A607B19DB7962
:102A30004F2B07D1154AA44601231E210720FEF77C
:102A400075FD06E0124AA44601231E210720FEF769
:102A50006DFD80239B010A480122190001F0FBFB58
:102A6000FA239B00180001F091F9C046BD4609B059
:102A7000F0BDC046840100204B04000044700008F3
:102A80000008004880700008F00000200C6E00086C
:102A90005C700008F0B589B000AF644663467B60A7
:102AA000C04601F069F902002C4B1B68D31A2C4A6E
:102AB0009342F6D92B4AA446012328210720FEF78A
:102AC0002BF910257B1900221A6004330B220021F8
:102AD000180003F097FC80239B0123480022190073
:102AE00001F0B9FB0826BB19204A03CA03C300F052
:102AF0004FFAB9191E483223082202F0E3FE791971
:102B00001B4832230F2202F07DFF01F035F902004D
:102B1000124B1A607B195B784F2B07D1154AA446DC
:102B2000012328210720FEF701FD06E0124AA446F2
:102B3000012328210720FEF7F9FC80239B010A4886
:102B40000122190001F087FBFA239B00180001F015
:102B50001DF9C046BD4609B0F0BDC0468401002045
:102B60004B0400004470000800080048887000080A
:102B7000F00000200C6E00085C700008F0B5A7B0F3
:102B800000AF644663467B6001F0F6F802009D4B9F
:102B90001B68D31A9C4A934200D82EE180239B01E4
:102BA0009A480022190001F056FB9426BB19984A56
:102BB0001A8008257B1900221A600433452200215F
:102BC000180003F01FFC00F0E3F9B9199148322313
:102BD000022202F077FE79198E486423492202F01E
:102BE00011FF01F0C9F80200864B1A608C26BB1950
:102BF00000221A6000229A808423FB1800221A60A7
:102C000000229A807C22BB1800221A6000229A803F
:102C100074217B1800221A6000229A806C203B18D5
:102C200000221A6000229A8064217B1800221A6018
:102C300000229A805C23FB1800221A6000229A80EE
:102C400054217B1800221A6000229A807B191900F7
:102C50002B31BB190522180003F0DCFB7B1919008E
:102C600031318423FB180522180003F0D3FB7B19B4
:102C7000190019316C203B180522180003F0CAFB1B
:102C80007B1919001F316422BB180522180003F0BC
:102C9000C1FB7B19D91D5C23FB180522180003F02A
:102CA000B9FB7B191900253154203B180522180067
:102CB00003F0B0FB7B19190013317C22BB180522ED
:102CC000180003F0A7FB7B1919000D3174257B193F
:102CD0000522180003F09EFB4F4AA4460123002161
:102CE0000020FEF719F8BA19A44601230021152087
:102CF000FEF712F8494AA446012300213F20FEF7BF
:102D00000BF88423FA18A446012300215B20FEF768
:102D100003F8434AA44601230F210020FDF7FCFFDE
:102D20006C203A18A44601230F211520FDF7F4FF6B
:102D30003C4AA44601230F213F20FDF7EDFF64210B
:102D40007A18A44601230F215B20FDF7E5FF364AE0
:102D5000A446012319210020FDF7DEFF5C23FA18A9
:102D6000A446012319211520FDF7D6FF2F4AA446BA
:102D7000012319213F20FDF7CFFF54203A18A44624
:102D8000012319215B20FDF7C7FF294AA44601232F
:102D900028210020FDF7C0FF7C22BA18A446012399
:102DA00028211520FDF7B8FF224AA4460123282137
:102DB0003F20FDF7B1FF7A19A446012328215B20AB
:102DC000FDF7AAFF1C4AA446012335210020FDF788
:102DD000A3FF1A4B1B78002B06D1194AA4460123E6
:102DE00035210020FDF798FF80239B010748012231
:102DF000190001F030FA00F059FAC046BD4627B07C
:102E0000F0BDC046840100204C04000000080048CA
:102E1000460D0000F0000020907000089C70000833
:102E2000A8700008B4700008C0700008CC700008DA
:102E3000D8700008E4700008186F000881010020B5
:102E4000206F000890B595B000AF20243B19180002
:102E500030231A00002103F0D5FA1023FB181800C4
:102E600010231A00002103F0CDFA3B0018001023B4
:102E70001A00002103F0C6FA21007B1803221A6011
:102E80007B1801225A607B180122DA607B1810221D
:102E90001A617B1802221A627B18802252025A623F
:102EA0007B18802252039A627B180022DA627B1818
:102EB000180001F087FF031E01D000F02DF910214A
:102EC0007B1807221A607B1802225A607B180022A6
:102ED0009A607B180022DA607B180121180002F04A
:102EE0008BFA031E01D000F017F93B0020221A6074
:102EF0003B000022DA603B00180002F0C1FB031E19
:102F000001D000F009F9C046BD4615B090BD0000E3
:102F100080B500AF1B4B1C4A1A601A4B1B4A5A6003
:102F2000184B00229A60174B0122DA60154B0022E1
:102F30001A61144B00225A61124B00229A61114B04
:102F40000022DA610F4B00221A620E4B180001F0CA
:102F50009FF9031E01D000F0DFF80A4B0021180092
:102F600001F098FE031E01D000F0D6F8054B0021B9
:102F7000180001F0DBFE031E01D000F0CDF8C046C2
:102F8000BD4680BD9C000020005400400A02100095
:102F900080B500AF144B154A1A60134B962292016C
:102FA0005A60114B00229A600F4B0022DA600E4BE0
:102FB00000221A610C4B0C225A610B4B00229A61C1
:102FC000094B0022DA61084B00221A62064B0022EC
:102FD0005A62054B180002F021FC031E01D000F0DC
:102FE0009BF8C046BD4680BDF00000200044004074
:102FF00090B58BB000AF14243B19180014231A00AD
:10300000002103F0FFF9414B5A69404B802109032D
:103010000A435A613D4B5A6980231B0313403B61AD
:103020003B693A4B5A69394B8021C9030A435A61BB
:10303000364B5A698023DB031340FB60FB68334B3C
:103040005A69324B802189020A435A612F4B5A69CF
:1030500080239B021340BB60BB682C4B5A692B4BEF
:103060008021C9020A435A61284B5A698023DB0236
:1030700013407B607B6880239B0125480022190058
:1030800001F0E9F880235B0022480022190001F0DA
:10309000E2F83B19802292011A603B1901225A6022
:1030A0003B1900229A603B190022DA603B19184A4A
:1030B0001900100000F042FF21007B18802252010D
:1030C0001A600C003B1900225A603B1901229A60D9
:1030D0003B19104A1900100000F030FF21007B1846
:1030E000802252001A607B1801225A607B1800224D
:1030F0009A607B180022DA607B18064A19001000DB
:1031000000F01CFFC046BD460BB090BD0010024051
:10311000000800480004004880B500AF72B6C04601
:10312000C046FDE780B582B000AF00F0E5FB5B4B29
:103130005B480122782101F07BFA031E01D00023B5
:10314000A8E0584B7B6002E07B68013B7B607B68BA
:10315000002BF9D1AE220021782000F04DFC202276
:103160000021782000F048FC10220021782000F097
:1031700043FCB0220021782000F03EFCC822002150
:10318000782000F039FC00220021782000F034FC87
:1031900010220021782000F02FFC4022002178200E
:1031A00000F02AFC81220021782000F025FCFF227B
:1031B0000021782000F020FCA1220021782000F0DE
:1031C0001BFCA6220021782000F016FCA82200217A
:1031D000782000F011FC3F220021782000F00CFC48
:1031E000A4220021782000F007FCD32200217820BF
:1031F00000F002FC00220021782000F0FDFBD52227
:103200000021782000F0F8FBF0220021782000F067
:10321000F3FBD9220021782000F0EEFB22220021CE
:10322000782000F0E9FBDA220021782000F0E4FBAE
:1032300012220021782000F0DFFBDB220021782021
:1032400000F0DAFB20220021782000F0D5FB8D224F
:103250000021782000F0D0FB14220021782000F01B
:10326000CBFBAF220021782000F0C6FB2E220021EC
:10327000782000F0C1FB002000F050F800F016F8B4
:10328000094B00221A80084B00225A80064B01226B
:103290005A7101231800BD4602B080BD204E0000C7
:1032A0009C000020C4090000A805002080B582B061
:1032B00000AFFB1D00221A7025E0FB1D1B78503B60
:1032C000DBB21A000021782000F096FB00220021DA
:1032D000782000F091FB10220021782000F08CFB78
:1032E000FB1D1A7813005B019B189B001A000A4B08
:1032F000D21884234021782000F012FBFB1D1A789D
:10330000FB1D01321A70FB1D1B78072BD5D9C04657
:10331000C046BD4602B080BD8801002080B582B0A5
:1033200000AF0200FB1D1A70FB1D1B78002B01D1A2
:10333000002300E0FF238422D2000448190003F098
:1033400061F8C046BD4602B080BDC046880100207D
:1033500090B583B000AF040008001100BB1D221C13
:103360001A803B1D021C1A80FB1C0A1C1A70BB1D14
:103370001B88832B5ED83B1D1B883F2B5AD82F4BB5
:103380001B79002B06D0FB1C1B785A425341DAB242
:10339000FB1C1A70FB1C1B78012B24D1BB1D1A8847
:1033A0003B1D1B88DB0898B201000B005B015B181A
:1033B0009B00D318224AD35C5AB23B1D1B880721BD
:1033C0000B40012199400B005BB213435CB2BB1D63
:1033D0001A8801000B005B015B189B00D318E1B257
:1033E000174AD15427E0BB1D1A883B1D1B88DB08F8
:1033F00098B201000B005B015B189B00D318104AC8
:10340000D35C5BB23A1D128807210A40012191402A
:103410000A0052B2D24352B213405CB2BB1D1A88AA
:1034200001000B005B015B189B00D318E1B2044A5A
:10343000D15400E0C046BD4603B090BDA8050020B1
:103440008801002080B582B000AF0200BB1D1A8049
:103450003B1D0A1C1A80064BBA1D12881A80044BA9
:103460003A1D12885A80C046BD4602B080BDC04693
:10347000A805002080B586B000AF39601100FB1DA3
:10348000021C1A70BB1D0A1C1A703A4B1B881A00CA
:103490003B681B78D318832B07DC364B5B881A00FC
:1034A0003B685B78D3183F2B01DD00235DE00023F0
:1034B0007B614AE03B685A68FB1D1B78203B3968FA
:1034C00049784B4319007B69CB185B00D3181B88E4
:1034D000FB6000233B612FE0FA683B699A40802340
:1034E0001B02134011D0234B1A883B699BB2D3189F
:1034F00098B2204B5A887B699BB2D31899B2BB1DF6
:103500001B781A00FFF724FF13E01A4B1A883B6957
:103510009BB2D31898B2174B5A887B699BB2D318C9
:1035200099B2BB1D1B785A425341DBB21A00FFF718
:103530000FFF3B6901333B613B681B781A003B6915
:103540009342C9D37B6901337B613B685B781A0086
:103550007B699342AED3074B1B883A6812789B185D
:103560009AB2044B1A80FB1D1B781800BD4606B0AA
:1035700080BDC046A805002080B584B000AFF860CB
:10358000B960FB1D1A7013E0FB681878FB1D1A78F0
:10359000BB681900FFF76EFF03001A00FB681B7879
:1035A0009A4202D0FB681B7808E0FB680133FB609D
:1035B000FB681B78002BE7D1FB681B781800BD4621
:1035C00004B080BDB0B586B000AF05000C0010009F
:1035D0001900BB1D2A1C1A803B1D221C1A80BB1C13
:1035E000021C1A803B000A1C1A80BB1D1B88832BFF
:1035F00002D9BB1D83221A80BB1C1B88832B02D9D6
:10360000BB1C83221A803B1D1B883F2B02D93B1D0C
:103610003F221A803B001B883F2B02D93B003F22F0
:103620001A80BA1DBB1C12881B889A4207D2BA1C8A
:10363000BB1D12881B88D31A9BB21BB206E0BA1DB1
:10364000BB1C12881B88D31A9BB21BB21222BA1859
:1036500013803A1D3B0012881B889A4207D23A0019
:103660003B1D12881B88D31A9BB21BB206E03A1D81
:103670003B0012881B88D31A9BB21BB21022BA18C7
:103680001380BA1DBB1C12881B889A4201D20122EA
:1036900001E001235A420E23FB181A803A1D3B0019
:1036A00012881B889A4201D2012201E001235A426A
:1036B0000C23FB181A8012217A181023FB18002003
:1036C000125E00201B5E9A4208DD7B1800229B5E82
:1036D000002B00DA01335B101BB209E01023FB184A
:1036E00000229B5E002B00DA01335B105B421BB2B1
:1036F0001622BA1813801223FB1800229B5E002B9F
:1037000048D13A003B1D12881B889A420CD20821EE
:103710007B183A0012881A803B003A1D12881A80E2
:103720003B1D7A1812881A80BA1CBB1D12881B8890
:103730009A420CD208217B18BA1C12881A80BB1C32
:10374000BA1D12881A80BB1D7A1812881A80142399
:10375000FB183A1D12881A8013E014243B191988AB
:103760002823FB181A78BB1D1B881800FFF7F0FDF3
:1037700021007B1800229B5E9BB201339AB27B181A
:103780001A801423FB1800229A5E3B001B889A4281
:10379000E3DDA3E01023FB1800229B5E002B48D141
:1037A0003A003B1D12881B889A420CD208217B18D4
:1037B0003A0012881A803B003A1D12881A803B1D7D
:1037C0007A1812881A80BA1CBB1D12881B889A426C
:1037D0000CD208217B18BA1C12881A80BB1CBA1D97
:1037E00012881A80BB1D7A1812881A801423FB18BD
:1037F000BA1D12881A8013E014243B191888282354
:10380000FB181A783B1D1B881900FFF7A1FD21004A
:103810007B1800229B5E9BB201339AB27B181A8000
:103820001423FB1800229A5EBB1C1B889A42E3DD1E
:1038300054E02823FB181A783B1D1988BB1D1B88F0
:103840001800FFF785FDBA1DBB1C12881B889A4221
:1038500005D13A1D3B0012881B889A423DD00A20B0
:103860003B1816217A1812881A803B1800229A5E9B
:103870001223FB1800201B5E5B429A4210DD7B186E
:103880001A881023FB181B88D31A9AB27B181A8047
:103890000E23FB181988BB1DBA1D12888A181A80BE
:1038A0000A23FA181023FB180021525E00215B5EE8
:1038B0009A42BEDA16217B181A881223FB181B883D
:1038C000D3189AB27B181A800C23FB1819883B1D59
:1038D0003A1D12888A181A80ABE7C046BD4606B06A
:1038E000B0BD80B500AF0020FFF718FDFFF7DEFC8C
:1038F000C046BD4680BD000080B582B000AF074B1A
:103900007B6002E07B68013B7B607B68002BF9D128
:10391000C046C046BD4602B080BDC04690D0030040
:10392000B0B5C6B002AF040008003A6019002D4BD4
:1039300088256D005B19DB19221C1A702A4B2C009C
:103940001B19DB19021C1A70284B20001B18DB19ED
:103950000A1C1A80264B1B18DB19234A1218D2198D
:1039600012781A701023FF33FB1800221A7014E02B
:103970001020FF303B181B783A68D2183B181B7890
:10398000013311781A4A882464001219D219D154CB
:103990003B181A783B1801321A701023FF33FB18BA
:1039A0001B789BB2114A882149005218D2191288FB
:1039B0009A42DDD80B4B0A009B18DB191B7899B291
:1039C0000A4B9B18DB191B8801339BB20C22BA18D7
:1039D00008480A24009400F001FDC046BD4644B0EA
:1039E000B0BDC046F7FEFFFFF6FEFFFFF4FEFFFF8F
:1039F000FCFEFFFF9C00002090B587B002AF0400E2
:103A000008001100FB1D221C1A70BB1D021C1A703D
:103A10007B1D0A1C1A700C203B18BA1D12781A70F4
:103A20003B187A1D12785A70FB1D1B7899B23A1810
:103A300004480A230093022300F0D0FCC046BD4690
:103A400005B090BD9C00002080B582B000AF0F4B48
:103A50009A690E4B01210A439A610C4B9B69012222
:103A600013407B607B68094BDA69084B802149056C
:103A70000A43DA61054BDA6980235B0513403B603A
:103A80003B68C046BD4602B080BDC0460010024043
:103A900090B58BB000AF786014243B191800142344
:103AA0001A00002102F0AEFC7B681B681C4A93429E
:103AB00031D11C4B5A691B4B8021C9020A435A6100
:103AC000184B5A698023DB0213403B613B6921009C
:103AD0007B18C0221A607B1812225A607B180022C1
:103AE0009A607B180322DA607B1801221A617B1826
:103AF0000D4A1900100000F021FA0A4BDA69094B4F
:103B0000802189030A43DA61064BDA6980239B032B
:103B10001340FB60FB68C046BD460BB090BDC0467D
:103B200000540040001002400004004890B58BB0E3
:103B300000AF786014243B19180014231A000021E8
:103B400002F060FC7B681B681C4A934232D11C4B1C
:103B5000DA691B4B802189020A43DA61184BDA6962
:103B600080239B0213403B613B69154B5A69144B00
:103B7000802189020A435A61114B5A6980239B02B2
:103B80001340FB60FB6821007B180C221A607B1835
:103B900002225A607B1800229A607B180322DA60A6
:103BA0007B1801221A617A189023DB051100180096
:103BB00000F0C4F9C046BD460BB090BD00440040C3
:103BC0000010024080B500AFC046FDE780B500AFF1
:103BD000C046FDE780B500AFC046BD4680BD80B59C
:103BE00000AFC046BD4680BD80B500AF00F0B2F862
:103BF000C046BD4680BD000080B586B000AF78608D
:103C0000144A154BD31A7B617B693B61134B1B68CC
:103C1000002B02D1114B124A1A60104B1A687B68B4
:103C2000D3183A699A4207D202F008FC03000C222A
:103C30001A6001235B4209E0084B1B68FB60074BDD
:103C40001A687B68D218054B1A60FB681800BD46DD
:103C500006B080BD0020002000040000B005002058
:103C60000007002080B500AFC046BD4680BD000003
:103C70000D488546FFF7F6FF0C480D490D4A002315
:103C800002E0D458C4500433C4188C42F9D30A4A11
:103C90000A4C002301E013600432A242FBD302F07D
:103CA000D3FBFDF7ABF8FEE700200020000000206A
:103CB00080000020F49A0008800000200007002007
:103CC000FEE7000080B500AF074B1A68064B1021D5
:103CD0000A431A60032000F009F8FFF7B5FE00233D
:103CE0001800BD4680BDC0460020024090B583B09C
:103CF00000AF7860144B1C68144B1B781900FA2332
:103D00009800FCF70BFA030019002000FCF706FAF4
:103D10000300180000F005F9031E01D001230FE095
:103D20007B68032B0BD8796801235B4200221800C3
:103D300000F0E2F8064B7A681A60002300E00123E5
:103D40001800BD4603B090BD240000202C000020C8
:103D50002800002080B500AF054B1B781A00054BEA
:103D60001B68D218034B1A60C046BD4680BDC046D2
:103D70002C000020B405002080B500AF024B1B686A
:103D80001800BD4680BDC046B405002080B584B093
:103D900000AF7860FFF7F0FF0300BB607B68FB605B
:103DA000FB68013305D00A4B1B781A00FB689B188F
:103DB000FB60C046FFF7E0FF0200BB68D31AFA6859
:103DC0009A42F7D8C046C046BD4604B080BDC04642
:103DD0002C00002090B583B000AF02003960FB1DBD
:103DE0001A70FB1D1B787F2B28D82F4AFB1D1B78D0
:103DF0005BB29B08C0339B009B58FA1D12781100E0
:103E000003220A40D200FF2191400A00D2431A4007
:103E100011003B689B01FF221A40FB1D1B78180014
:103E200003230340DB009A401F48FB1D1B785BB255
:103E30009B080A43C0339B001A5031E01B4AFB1D0C
:103E40001B7819000F230B40083B9B0806339B008F
:103E5000D31804331B68FA1D1278110003220A409C
:103E6000D200FF2191400A00D2431A4011003B6862
:103E70009B01FF221A40FB1D1B78180003230340FF
:103E8000DB009A400948FB1D1B781C000F232340D0
:103E9000083B9B080A4306339B00C31804331A608F
:103EA000C046BD4603B090BD00E100E000ED00E07B
:103EB00080B582B000AF78607B685A1E80235B04B7
:103EC0009A4201D3012310E00A4B7A68013A5A6002
:103ED00001235B4203211800FFF77CFF054B002202
:103EE0009A60044B07221A6000231800BD4602B0F6
:103EF00080BDC04610E000E080B584B000AFB9607E
:103F00007A600F217B18021C1A70BA687B181B7824
:103F10005BB211001800FFF75DFFC046BD4604B05C
:103F200080BD80B582B000AF78607B681800FFF775
:103F3000BFFF03001800BD4602B080BD80B586B04B
:103F400000AF7860396000237B614FE13B681B68FC
:103F500001217A6991400A001340FB60FB68002B45
:103F600000D140E13B685B6803221340012B05D080
:103F70003B685B6803221340022B30D17B689B684F
:103F80003B617B695B0003229A401300DA433B6983
:103F900013403B613B68DA687B695B009A40130021
:103FA0003A6913433B617B683A699A607B685B6856
:103FB0003B6101227B699A401300DA433B6913405D
:103FC0003B613B685B681B0901221A407B699A4090
:103FD00013003A6913433B617B683A695A603B6856
:103FE0005B6803221340032B17D07B68DB683B61BF
:103FF0007B695B0003229A401300DA433B6913405C
:104000003B613B689A687B695B009A4013003A69A0
:1040100013433B617B683A69DA603B685B68032263
:104020001340022B23D17B69DA087B6808329200A7
:10403000D3583B617B69072213409B000F229A40B3
:104040001300DA433B6913403B613B681A697B69A3
:1040500007210B409B009A4013003A6913433B61D0
:104060007B69DA087B68083292003969D1507B6835
:104070001B683B617B695B0003229A401300DA43B3
:104080003B6913403B613B685B6803221A407B69D4
:104090005B009A4013003A6913433B617B683A69BD
:1040A0001A603B685A68C0239B02134000D19AE013
:1040B000544B9A69534B01210A439A61514B9B69B6
:1040C00001221340BB60BB684F4A7B699B080233E7
:1040D0009B009B583B617B69032213409B000F228E
:1040E0009A401300DA433B6913403B617A6890239E
:1040F000DB059A4213D07B68444A93420DD07B681B
:10410000434A934207D07B68424A934201D103233A
:1041100006E0052304E0022302E0012300E000237F
:104120007A6903210A40920093403A6913433B6144
:1041300035497B699B0802339B003A695A50364BDC
:104140009B683B61FB68DA433B6913403B613B681A
:104150005A6880235B03134003D03A69FB6813431A
:104160003B612D4B3A699A602B4BDB683B61FB68E6
:10417000DA433B6913403B613B685A6880239B03E9
:10418000134003D03A69FB6813433B61224B3A6901
:10419000DA60214B5B683B61FB68DA433B691340A3
:1041A0003B613B685A6880239B02134003D03A6905
:1041B000FB6813433B61184B3A695A60164B1B6806
:1041C0003B61FB68DA433B6913403B613B685A68DB
:1041D00080235B02134003D03A69FB6813433B61C1
:1041E0000D4B3A691A607B6901337B613B681A6841
:1041F0007B69DA40131E00D0A8E6C046C046BD4623
:1042000006B080BD001002400000014000040048DC
:1042100000080048000C00480004014080B584B04C
:1042200000AF78600A00BB1C1A807B681B69BA1C4F
:104230001288134004D00F23FB1801221A7003E0E8
:104240000F23FB1800221A700F23FB181B7818008D
:10425000BD4604B080BD80B582B000AF7860080074
:104260001100BB1C021C1A807B1C0A1C1A707B1CD0
:104270001B78002B04D0BB1C1A887B689A6103E072
:10428000BB1C1A887B689A62C046BD4602B080BDDE
:1042900080B582B000AF78607B68002B01D101232C
:1042A0008FE07B6841229B5CDBB2002B07D17B68EF
:1042B0004022002199547B681800FFF7E9FB7B68D6
:1042C0004122242199547B681B681A687B681B680B
:1042D00001218A431A607B685A687B681B683B49E6
:1042E0000A401A617B681B689A687B681B683849BA
:1042F0000A409A607B68DB68012B08D17B689A686A
:104300007B681B68802109020A439A6007E07B688A
:104310009A687B681B68842109020A439A607B685B
:10432000DB68022B09D17B681B685A687B681B68B5
:10433000802109010A435A6007E07B681B685A68BC
:104340007B681B6823490A405A607B681B685A686F
:104350007B681B6820490A435A607B681B68DA68DF
:104360007B681B681A490A40DA607B681A697B68B7
:104370005B691A4311007B689B691A027B681B68A2
:104380000A43DA607B68D9697B681A6A7B681B68B4
:104390000A431A607B681B681A687B681B680121E6
:1043A0000A431A607B6800225A647B6841222021FC
:1043B00099547B6800221A637B6842220021995439
:1043C00000231800BD4602B080BDC046FFFFFFF0CD
:1043D000FF7FFFFFFFF7FFFF0080000290B589B06D
:1043E00002AFF86008007A6019000A23FB18021C6B
:1043F0001A800823FB180A1C1A80FB6841229B5C68
:10440000DBB2202B00D00AE1FB6840229B5C012B31
:1044100001D1022304E1FB68402201219954FFF7F6
:10442000ABFC03003B6180231902F8683B690093F1
:104430001923012200F01AFA031E01D00123EFE034
:10444000FB68412221219954FB6842221021995492
:10445000FB6800225A64FB687A685A62FB6808228B
:10446000BA1812885A85FB6800225A63FB685B8D74
:104470009BB2FF2B06D9FB68FF221A8580235B04C1
:104480007B6107E0FB685B8D9AB2FB681A8580232D
:104490009B047B61FB681B8D002B27D0FB685B6A4C
:1044A0001A78FB681B689A62FB685B6A5A1CFB6897
:1044B0005A62FB685B8D9BB2013B9AB2FB685A85DE
:1044C000FB681B8D013B9AB2FB681A85FB681B8D4C
:1044D000DBB20133DAB27C690A23FB181988F86869
:1044E000514B0093230000F09BFB6FE0FB681B8D9A
:1044F000DAB27C690A23FB181988F8684A4B0093E2
:10450000230000F08DFB61E03A69B96AFB6818008E
:1045100000F004FA031E01D0012381E0FB685B6A0E
:104520001A78FB681B689A62FB685B6A5A1CFB6816
:104530005A62FB685B8D9BB2013B9AB2FB685A855D
:10454000FB681B8D013B9AB2FB681A85FB685B8D8B
:104550009BB2002B3AD0FB681B8D002B36D1BA6A78
:10456000F8683B69009313000022802100F07EF977
:10457000031E01D0012353E0FB685B8D9BB2FF2B30
:1045800011D9FB68FF221A85FB681B8DDAB28023E4
:104590005C040A23FB181988F868002300932300A1
:1045A00000F03EFB12E0FB685B8D9AB2FB681A8557
:1045B000FB681B8DDAB280239C040A23FB18198840
:1045C000F86800230093230000F02AFBFB685B8D52
:1045D0009BB2002B98D13A69B96AFB68180000F0C9
:1045E000E3F9031E01D001231AE0FB681B682022B7
:1045F000DA61FB681B685A68FB681B680B490A4054
:104600005A60FB68412220219954FB684222002114
:104610009954FB68402200219954002300E00223B2
:104620001800BD4607B090BD0020008000E800FEE5
:1046300080B58AB002AFF8607A603B600A23FB184D
:104640000A1C1A8000237B61FB6841229B5CDBB261
:10465000202B00D0DFE0FB681B689A6980231B02D7
:104660001A4080231B029A4201D10223D4E0FB6846
:1046700040229B5C012B01D10223CDE0FB6840224C
:1046800001219954FB68412224219954FB6800229E
:104690005A64FB68DB68012B07D10A23FB181B88CF
:1046A0009B059B0D5E4A1A4306E00A23FB181B88F4
:1046B0009B059B0D5B4A1A43FB681B685A60FFF71A
:1046C0005BFB0300BB61FB681B689B6920221340F6
:1046D000203B5A425341DAB21F23FB181A70FB6881
:1046E0001B689B6910221340103B5A425341DAB2B7
:1046F0001E23FB181A7035E03B6801331AD0FFF710
:104700003BFB0200BB69D31A3A689A4202D33B686A
:10471000002B0FD1FB68412220219954FB685B6C70
:1047200020221A43FB685A64FB68402200219954F6
:10473000012371E0FB681B689B6920221340203B2A
:104740005A425341DAB21F23FB181A70FB681B68E8
:104750009B6910221340103B5A425341DAB21E2388
:10476000FB181A701F23FB181B78002B04D11E2383
:10477000FB181B78002BBFD0FB681B689B691022BD
:104780001340102B1AD03A68F868BB6900931300E5
:104790000022202100F06AF8031E01D001233BE033
:1047A000FB681B682022DA61FB68412220219954B2
:1047B000FB6840220021995400232DE03A68F868F4
:1047C000BB69009313000022202100F04FF8031E64
:1047D00001D0012320E0FB681B681022DA61FB682E
:1047E0001B682022DA617B6901337B617B697A680F
:1047F0009A4200D94DE7FB68412220219954FB6879
:104800005B6C20221A43FB685A64FB68402200213B
:104810009954012300E002231800BD4608B080BD72
:10482000002000020028000280B582B000AF78604E
:104830007B681B689B6902221340022B03D17B68B3
:104840001B6800229A627B681B689B6901221340E7
:10485000012B07D07B681B689A697B681B68012164
:104860000A439A61C046BD4602B080BD80B584B09F
:1048700000AFF860B9603B60FB1D1A703AE0BA699E
:104880003968FB68180000F0D3F8031E01D001233B
:1048900040E03B6801332DD0FFF76EFA0200BB69A0
:1048A000D31A3A689A4202D33B68002B22D1FB68A4
:1048B0001B689B69BA681340BA68D31A5A425341BD
:1048C000DBB21A00FB1D1B789A4213D1FB685B6CAC
:1048D00020221A43FB685A64FB6841222021995424
:1048E000FB68422200219954FB6840220021995420
:1048F00001230FE0FB681B689B69BA681340BA6824
:10490000D31A5A425341DBB21A00FB1D1B789A425C
:10491000B5D000231800BD4604B080BD80B584B07A
:1049200000AFF860B9607A6032E07A68B968FB6815
:10493000180000F07DF8031E01D0012330E0BB68B1
:10494000013325D0FFF718FA02007B68D31ABA6842
:104950009A4202D3BB68002B1AD1FB681B689B6983
:1049600002221340022B13D0FB685B6C20221A43F7
:10497000FB685A64FB68412220219954FB6842225B
:1049800000219954FB68402200219954012307E03B
:10499000FB681B689B6902221340022BC5D10023D0
:1049A0001800BD4604B080BD80B584B000AFF8608B
:1049B000B9607A602FE07A68B968FB68180000F087
:1049C00037F8031E01D001232DE0FFF7D5F90200CF
:1049D0007B68D31ABA689A4202D3BB68002B1AD1FB
:1049E000FB681B689B6920221340202B13D0FB68B7
:1049F0005B6C20221A43FB685A64FB684122202129
:104A00009954FB68422200219954FB6840220021FE
:104A10009954012307E0FB681B689B69202213401F
:104A2000202BC8D100231800BD4604B080BD000073
:104A300080B58AB000AFF860B9607A602723FB18B0
:104A400000221A70FB681B689B69BB6100233B62F4
:104A50007B68FB61BB691022134000D179E0FB68E1
:104A60001B681022DA6157E02722BB18BA181278A7
:104A70001A70BB6801334FD0FFF77EF90200FB6963
:104A8000D31ABA689A4202D3BB68002B44D1FB68A0
:104A90001B685A688023DB0113407B6113203B189D
:104AA000FA684221525C1A70FB681B689A6980237D
:104AB0001B021A4080231B029A4226D17A69802366
:104AC000DB019A4221D03B181B78202B1DD0FB68BC
:104AD0001B685A68FB681B688021C9010A435A6039
:104AE000FFF74AF90300FB610FE0FFF745F9020009
:104AF000FB69D31A192B08D93B6A202213433B6266
:104B00002723FB1801221A7006E0FB681B689B69CB
:104B100020221340202BE8D1FB681B689B692022D0
:104B20001340202B04D02723FB181B78002B9BD08D
:104B30002723FB181B78002B03D1FB681B6820225E
:104B4000DA613B6A042213433B622723FB180122EC
:104B50001A70FB681B689B69BB61BA6980235B00A4
:104B600013400CD03B6A012213433B62FB681B6875
:104B700080225200DA612723FB1801221A70BA69D9
:104B80008023DB0013400CD03B6A082213433B62B6
:104B9000FB681B688022D200DA612723FB18012200
:104BA0001A70BA6980239B0013400CD03B6A022222
:104BB00013433B62FB681B6880229200DA61272363
:104BC000FB1801221A702723FB181B78002B1DD01D
:104BD000FB681800FFF728FEFB681B685A68FB6833
:104BE0001B680E490A405A60FB685A6C3B6A1A43BC
:104BF000FB685A64FB68412220219954FB684222D9
:104C000000219954FB684022002199542723FB1866
:104C10001B781800BD460AB080BDC04600E800FE03
:104C200090B587B000AFF860080011007B600A24DF
:104C30003B19021C1A8009203B180A1C1A703B19E8
:104C40001B889B059A0D3B181B781904FF231B0436
:104C50000B401A437B681A43BB6A13435B005B0833
:104C60007B61FB681B685B68BA6A510D8022D200C9
:104C70000A4007490A43D2431A401100FB681B68E7
:104C80007A690A435A60C046BD4607B090BDC04627
:104C9000FF63FF0380B582B000AF786039607B6846
:104CA00041229B5CDBB2202B38D17B6840229B5C8D
:104CB000012B01D1022332E07B684022012199546B
:104CC0007B684122242199547B681B681A687B68A1
:104CD0001B6801218A431A607B681B681A687B681D
:104CE0001B6811490A401A607B681B6819687B6859
:104CF0001B683A680A431A607B681B681A687B68FD
:104D00001B6801210A431A607B68412220219954C3
:104D10007B68402200219954002300E00223180000
:104D2000BD4602B080BDC046FFEFFFFF80B584B036
:104D300000AF786039607B6841229B5CDBB2202B3E
:104D400039D17B6840229B5C012B01D1022333E0E7
:104D50007B684022012199547B6841222421995487
:104D60007B681B681A687B681B6801218A431A608C
:104D70007B681B681B68FB60FB68114A1340FB6083
:104D80003B681B02FA681343FB607B681B68FA6888
:104D90001A607B681B681A687B681B6801210A43DC
:104DA0001A607B684122202199547B6840220021AF
:104DB0009954002300E002231800BD4604B080BDD2
:104DC000FFF0FFFF80B588B000AF78607B68002BF4
:104DD00001D1012301E37B681B680122134000D14C
:104DE0008DE0C34B5B680C221340042B0ED0C04BEC
:104DF0005B680C221340082B16D1BD4B5A688023E8
:104E00005B021A4080235B029A420DD1B84B1A68AC
:104E100080239B02134000D170E07B685B68002B0D
:104E200000D06BE00123D8E27B685B68012B07D1DF
:104E3000AF4B1A68AE4B802149020A431A602FE03B
:104E40007B685B68002B0CD1A94B1A68A84BA94959
:104E50000A401A60A64B1A68A54BA7490A401A6077
:104E60001EE07B685B68052B0ED1A14B1A68A04B36
:104E70008021C9020A431A609D4B1A689C4B80210D
:104E800049020A431A600BE0994B1A68984B9949FA
:104E90000A401A60964B1A68954B97490A401A6067
:104EA0007B685B68002B14D0FEF766FF0300BB61D4
:104EB00008E0FEF761FF0200BB69D31A642B01D939
:104EC00003238AE28A4B1A6880239B021340F0D0A6
:104ED00015E0FEF751FF0300BB6108E0FEF74CFF51
:104EE0000200BB69D31A642B01D9032375E2804BFE
:104EF0001A6880239B021340F0D100E0C0467B6813
:104F00001B680222134000D169E0794B5B680C22D8
:104F100013400BD0764B5B680C221340082B1CD13E
:104F2000734B5A6880235B02134016D1704B1B6889
:104F30000222134005D07B68DB68012B01D00123DE
:104F40004BE26B4B1B68F822934319007B681B698B
:104F5000DA00674B0A431A6041E07B68DB68002B8C
:104F600024D0634B1A68624B01210A431A60FEF792
:104F700003FF0300BB6108E0FEF7FEFE0200BB6911
:104F8000D31A022B01D9032327E2594B1B680222B3
:104F90001340F1D0564B1B68F822934319007B68ED
:104FA0001B69DA00524B0A431A6018E0504B1A682A
:104FB0004F4B01218A431A60FEF7DEFE0300BB61FE
:104FC00008E0FEF7D9FE0200BB69D31A022B01D913
:104FD000032302E2464B1B6802221340F1D17B6897
:104FE0001B680822134036D07B68DB69002B19D080
:104FF0003F4B5A6A3E4B01210A435A62FEF7BCFE00
:105000000300BB6108E0FEF7B7FE0200BB69D31ADC
:10501000022B01D90323E0E1354B5B6A02221340E6
:10502000F1D018E0324B5A6A314B01218A435A625F
:10503000FEF7A2FE0300BB6108E0FEF79DFE020042
:10504000BB69D31A022B01D90323C6E1284B5B6A43
:1050500002221340F1D17B681B680422134000D167
:10506000B4E01F203B1800221A70214BDA6980231C
:105070005B05134010D11E4BDA691D4B8021490599
:105080000A43DA611A4BDA6980235B051340FB603F
:10509000FB683B1801221A70184B1A6880235B00CA
:1050A00013401AD1154B1A68144B802149000A434A
:1050B0001A60FEF761FE0300BB6108E0FEF75CFECC
:1050C0000200BB69D31A642B01D9032385E10B4B82
:1050D0001A6880235B001340F0D07B689B68012B2B
:1050E0000ED1034B1A6A024B01210A431A6235E0C2
:1050F00000100240FFFFFEFFFFFFFBFF00700040BB
:105100007B689B68002B0CD1B64B1A6AB54B01210A
:105110008A431A62B34B1A6AB24B04218A431A6259
:105120001CE07B689B68052B0CD1AE4B1A6AAD4B1B
:1051300004210A431A62AB4B1A6AAA4B01210A43A3
:105140001A620BE0A74B1A6AA64B01218A431A6226
:10515000A44B1A6AA34B04218A431A627B689B689A
:10516000002B14D0FEF708FE0300BB6109E0FEF738
:1051700003FE0200BB69D31A9B4A934201D9032361
:105180002BE1984B1B6A02221340F0D013E0FEF78C
:10519000F3FD0300BB6109E0FEF7EEFD0200BB6911
:1051A000D31A914A934201D9032316E18D4B1B6A0E
:1051B00002221340F0D11F23FB181B78012B05D1CD
:1051C000884BDA69874B89490A40DA617B681B683A
:1051D0001022134063D07B685B69012B2AD1814B7D
:1051E0005A6B804B04210A435A637E4B5A6B7D4BAA
:1051F00001210A435A63FEF7BFFD0300BB6108E0CB
:10520000FEF7BAFD0200BB69D31A022B01D90323B2
:10521000E3E0744B5B6B02221340F1D0714B5B6B8C
:10522000F822934319007B689B69DA006D4B0A43AF
:105230005A6334E07B685B69053311D1694B5A6B63
:10524000684B04218A435A63664B5B6BF822934395
:1052500019007B689B69DA00624B0A435A631EE0BF
:10526000604B5A6B5F4B04210A435A635D4B5A6B88
:105270005C4B01218A435A63FEF77EFD0300BB614C
:1052800008E0FEF779FD0200BB69D31A022B01D9B1
:105290000323A2E0534B5B6B02221340F1D17B68E6
:1052A0001B6A002B00D197E04E4B5B680C22134029
:1052B000082B00D16BE07B681B6A022B4CD1494B59
:1052C0001A68484B4A490A401A60FEF755FD030028
:1052D000BB6108E0FEF750FD0200BB69D31A022B48
:1052E00001D9032379E03F4B1A6880239B041340C4
:1052F000F0D13C4BDB6A0F22934319007B68DA6ADA
:10530000384B0A43DA62374B5B683A4A134019005C
:105310007B689A6A7B685B6A1A43324B0A435A601D
:10532000304B1A682F4B802149040A431A60FEF75C
:1053300023FD0300BB6108E0FEF71EFD0200BB6910
:10534000D31A022B01D9032347E0264B1A68802386
:105350009B041340F0D03FE0224B1A68214B2449B4
:105360000A401A60FEF708FD0300BB6108E0FEF783
:1053700003FD0200BB69D31A022B01D903232CE0E1
:10538000184B1A6880239B041340F0D124E07B68FB
:105390001B6A012B01D101231FE0124B5B687B616B
:1053A000104BDB6A3B617A6980235B021A407B68A1
:1053B0005B6A9A420ED13B690F221A407B68DB6A16
:1053C0009A4207D17A69F0239B031A407B689B6A53
:1053D0009A4201D0012300E000231800BD4608B026
:1053E00080BDC0460010024088130000FFFFFFEFA1
:1053F000FFFFFFFEFFFFC2FF80B584B000AF786003
:1054000039607B68002B01D10123B3E05B4B1B6843
:10541000012213403A689A4211D9584B1B68012265
:1054200093431900554B3A680A431A60534B1B6863
:10543000012213403A689A4201D001239AE07B6826
:105440001B680222134015D07B681B68042213409E
:1054500006D04B4B5A684A4BE021C9000A435A60B8
:10546000474B5B68F022934319007B689A68444B72
:105470000A435A607B681B680122134040D07B6856
:105480005B68012B07D13E4B1A6880239B021340B7
:1054900014D101236EE07B685B68022B07D1384B87
:1054A0001A6880239B04134008D1012362E0344B27
:1054B0001B680222134001D101235BE0304B5B6883
:1054C0000322934319007B685A682D4B0A435A60A4
:1054D000FEF752FC0300FB6009E0FEF74DFC020002
:1054E000FB68D31A274A934201D9032342E0244B95
:1054F0005B680C221A407B685B689B009A42ECD187
:105500001E4B1B68012213403A689A4211D21B4B72
:105510001B68012293431900184B3A680A431A602A
:10552000164B1B68012213403A689A4201D00123AE
:1055300020E07B681B680422134009D0104B5B6895
:10554000114A134019007B68DA680D4B0A435A6010
:1055500000F020F801000A4B5B681B090F22134082
:105560000A4AD35C0A00DA40094B1A600320FEF7AE
:10557000BDFB00231800BD4604B080BD00200240E2
:105580000010024088130000FFF8FFFF8099000818
:105590002400002080B586B000AF0023FB6000230C
:1055A000BB6000237B6100237B6000233B61204BB9
:1055B0005B68FB60FB680C221340042B02D0082BB5
:1055C00003D02CE01B4B3B612CE0FB689B0C0F22B3
:1055D0001340194AD35C7B60154BDB6A0F221340E2
:1055E000164AD35CBB60FA6880235B02134009D083
:1055F000B9681048FAF792FD03001A007B6853431C
:105600007B6109E079680A005201521A93019B1AE2
:10561000DB005B181B027B617B693B6102E0054B91
:105620003B61C0463B691800BD4606B080BDC04620
:105630000010024000127A0098990008A89900080A
:1056400080B500AF024B1B681800BD4680BDC04648
:105650002400002080B500AFFFF7F2FF0100064BE9
:105660005B681B0A07221340044AD35CD9400B0035
:105670001800BD4680BDC046001002409099000849
:1056800080B586B000AF786000233B610023FB60EB
:105690007B681A6880235B02134000D18EE01720DC
:1056A0003B1800221A70574BDA6980235B051340C0
:1056B00010D1544BDA69534B802149050A43DA6112
:1056C000504BDA6980235B051340BB60BB683B1815
:1056D00001221A704C4B1A6880235B0013401AD1C8
:1056E000494B1A68484B802149000A431A60FEF76B
:1056F00043FB03003B6108E0FEF73EFB02003B6911
:10570000D31A642B01D9032377E03F4B1A68802317
:105710005B001340F0D03B4B1A6AC0239B00134040
:10572000FB60FB68002B34D07B685A68C0239B0069
:105730001340FA689A422CD0324B1B6A334A13400A
:10574000FB60304B1A6A2F4B802149020A431A62D0
:105750002C4B1A6A2B4B2E490A401A62294BFA68C5
:105760001A62FB680122134013D0FEF705FB030009
:105770003B6109E0FEF700FB02003B69D31A254AB2
:10578000934201D9032338E01E4B1B6A02221340C7
:10579000F0D01C4B1B6A1D4A134019007B685A68E5
:1057A000184B0A431A621723FB181B78012B05D1EB
:1057B000144BDA69134B18490A40DA617B681B689D
:1057C0000122134009D00F4B1B6B03229343190096
:1057D0007B689A680B4B0A431A637B681B6820221C
:1057E000134009D0074B1B6B1022934319007B68B1
:1057F000DA68044B0A431A6300231800BD4606B05A
:1058000080BDC0460010024000700040FFFCFFFF5A
:10581000FFFFFEFF88130000FFFFFFEF80B582B09F
:1058200000AF78607B68002B01D1012344E07B68E6
:10583000DB6F002B07D17B687822002199547B68AD
:105840001800FEF773F97B682422DA677B681B680F
:105850001A687B681B6801218A431A607B685B6A4F
:10586000002B03D07B68180000F0E0FA7B6818007A
:1058700000F09CF90300012B01D101231CE07B689F
:105880001B685A687B681B680D490A405A607B6830
:105890001B689A687B681B6808218A439A607B684A
:1058A0001B681A687B681B6801210A431A607B68C1
:1058B000180000F06FFB03001800BD4602B080BD69
:1058C000FFF7FFFF80B58AB002AFF860B9603B60B8
:1058D000BB1D1A80FB68DB6F202B00D08CE0BB68FF
:1058E000002B03D0BB1D1B88002B01D1012384E0BA
:1058F000FB689A6880235B019A4209D1FB681B69A7
:10590000002B05D1BB680122134001D0012374E0B4
:10591000FB68842200219950FB682122DA67FEF798
:105920002BFA03007B61FB68BA1D502112885A5282
:10593000FB68BA1D522112885A52FB689A6880236C
:105940005B019A4208D1FB681B69002B04D100233C
:10595000FB61BB68BB6103E0BB68FB610023BB610B
:105960002FE07A69F8683B680093130000228021D9
:1059700000F0B8FB031E04D0FB682022DA67032383
:105980003BE0FB69002B0BD1BB691A88FB681B68E5
:10599000D205D20D92B21A85BB690233BB6107E012
:1059A000FB691A78FB681B681A85FB690133FB6188
:1059B000FB6852229B5A9BB2013B99B2FB68522270
:1059C0009952FB6852229B5A9BB2002BC9D17A692B
:1059D000F8683B68009313000022402100F082FB2E
:1059E000031E04D0FB682022DA67032305E0FB686E
:1059F0002022DA67002300E002231800BD4608B029
:105A000080BD000080B58AB002AFF860B9603B602D
:105A1000BB1D1A80FB6880229B58202B00D0BDE064
:105A2000BB68002B03D0BB1D1B88002B01D10123B9
:105A3000B5E0FB689A6880235B019A4209D1FB6854
:105A40001B69002B05D1BB680122134001D0012343
:105A5000A5E0FB68842200219950FB688022222166
:105A60009950FB6800221A66FEF786F903007B61F5
:105A7000FB68BA1D582112885A52FB68BA1D5A2178
:105A800012885A52FB689A6880235B019A420DD1B2
:105A9000FB681B69002B04D1FB685C2242499952C8
:105AA0001AE0FB685C22FF21995215E0FB689B68B5
:105AB000002B0DD1FB681B69002B04D1FB685C2215
:105AC000FF21995208E0FB685C227F21995203E094
:105AD000FB685C22002199521223FB18FA685C21B2
